{
  "contractName": "VikreyAuction",
  "abi": [
    {
      "anonymous": false,
      "inputs": [
        {
          "indexed": false,
          "internalType": "uint256",
          "name": "Auction_id",
          "type": "uint256"
        },
        {
          "indexed": false,
          "internalType": "address",
          "name": "highestBidder",
          "type": "address"
        },
        {
          "indexed": false,
          "internalType": "uint256",
          "name": "highestBid",
          "type": "uint256"
        }
      ],
      "name": "AuctionEnded",
      "type": "event"
    },
    {
      "anonymous": false,
      "inputs": [
        {
          "indexed": false,
          "internalType": "uint256",
          "name": "Auction_id",
          "type": "uint256"
        },
        {
          "indexed": false,
          "internalType": "string",
          "name": "item_name",
          "type": "string"
        },
        {
          "indexed": false,
          "internalType": "string",
          "name": "item_description",
          "type": "string"
        }
      ],
      "name": "AuctionStarted",
      "type": "event"
    },
    {
      "anonymous": false,
      "inputs": [
        {
          "indexed": false,
          "internalType": "uint256",
          "name": "auction_id",
          "type": "uint256"
        },
        {
          "indexed": false,
          "internalType": "address",
          "name": "bidder",
          "type": "address"
        },
        {
          "indexed": false,
          "internalType": "uint256",
          "name": "balance",
          "type": "uint256"
        }
      ],
      "name": "BalanceRefunded",
      "type": "event"
    },
    {
      "anonymous": false,
      "inputs": [
        {
          "indexed": false,
          "internalType": "address",
          "name": "bidder",
          "type": "address"
        }
      ],
      "name": "BidMade",
      "type": "event"
    },
    {
      "anonymous": false,
      "inputs": [
        {
          "indexed": false,
          "internalType": "uint256",
          "name": "Auction_id",
          "type": "uint256"
        },
        {
          "indexed": false,
          "internalType": "address",
          "name": "bidder",
          "type": "address"
        }
      ],
      "name": "BidRevealFailed",
      "type": "event"
    },
    {
      "anonymous": false,
      "inputs": [
        {
          "indexed": false,
          "internalType": "uint256",
          "name": "Auction_id",
          "type": "uint256"
        },
        {
          "indexed": false,
          "internalType": "address",
          "name": "bidder",
          "type": "address"
        }
      ],
      "name": "BidRevealed",
      "type": "event"
    },
    {
      "anonymous": false,
      "inputs": [
        {
          "indexed": false,
          "internalType": "uint256",
          "name": "auction_id",
          "type": "uint256"
        },
        {
          "indexed": false,
          "internalType": "address",
          "name": "bidder",
          "type": "address"
        },
        {
          "indexed": false,
          "internalType": "uint256",
          "name": "bid_value",
          "type": "uint256"
        }
      ],
      "name": "BidderRefunded",
      "type": "event"
    },
    {
      "anonymous": false,
      "inputs": [
        {
          "indexed": false,
          "internalType": "uint256",
          "name": "Auction_id",
          "type": "uint256"
        }
      ],
      "name": "BiddingPeriodEnded",
      "type": "event"
    },
    {
      "anonymous": false,
      "inputs": [
        {
          "indexed": false,
          "internalType": "uint256",
          "name": "Auction_id",
          "type": "uint256"
        },
        {
          "indexed": false,
          "internalType": "uint256",
          "name": "bidding_end",
          "type": "uint256"
        }
      ],
      "name": "BiddingStarted",
      "type": "event"
    },
    {
      "anonymous": false,
      "inputs": [
        {
          "indexed": false,
          "internalType": "uint256",
          "name": "auction_id",
          "type": "uint256"
        },
        {
          "indexed": false,
          "internalType": "address",
          "name": "bidder",
          "type": "address"
        }
      ],
      "name": "DepositNotEnough",
      "type": "event"
    },
    {
      "anonymous": false,
      "inputs": [
        {
          "indexed": false,
          "internalType": "uint256",
          "name": "auction_id",
          "type": "uint256"
        },
        {
          "indexed": false,
          "internalType": "string",
          "name": "encryptedKey",
          "type": "string"
        }
      ],
      "name": "EncryptedKey",
      "type": "event"
    },
    {
      "anonymous": false,
      "inputs": [
        {
          "indexed": false,
          "internalType": "uint256",
          "name": "auction_id",
          "type": "uint256"
        }
      ],
      "name": "ItemUnsold",
      "type": "event"
    },
    {
      "anonymous": false,
      "inputs": [
        {
          "indexed": false,
          "internalType": "uint256",
          "name": "auction_id",
          "type": "uint256"
        },
        {
          "indexed": false,
          "internalType": "address",
          "name": "bidder",
          "type": "address"
        },
        {
          "indexed": false,
          "internalType": "uint256",
          "name": "bid_value",
          "type": "uint256"
        }
      ],
      "name": "NewHighestBid",
      "type": "event"
    },
    {
      "anonymous": false,
      "inputs": [
        {
          "indexed": false,
          "internalType": "uint256",
          "name": "Auction_id",
          "type": "uint256"
        }
      ],
      "name": "RevealPeriodEnded",
      "type": "event"
    },
    {
      "anonymous": false,
      "inputs": [
        {
          "indexed": false,
          "internalType": "uint256",
          "name": "Auction_id",
          "type": "uint256"
        },
        {
          "indexed": false,
          "internalType": "uint256",
          "name": "reveal_end",
          "type": "uint256"
        }
      ],
      "name": "RevealPeriodStarted",
      "type": "event"
    },
    {
      "anonymous": false,
      "inputs": [
        {
          "indexed": false,
          "internalType": "uint256",
          "name": "Auction_id",
          "type": "uint256"
        },
        {
          "indexed": false,
          "internalType": "address",
          "name": "winner",
          "type": "address"
        },
        {
          "indexed": false,
          "internalType": "string",
          "name": "pubkey",
          "type": "string"
        },
        {
          "indexed": false,
          "internalType": "uint256",
          "name": "winning_bid",
          "type": "uint256"
        }
      ],
      "name": "WinnerChosen",
      "type": "event"
    },
    {
      "anonymous": false,
      "inputs": [
        {
          "indexed": false,
          "internalType": "uint256",
          "name": "auction_id",
          "type": "uint256"
        }
      ],
      "name": "deliveryComplete",
      "type": "event"
    },
    {
      "inputs": [
        {
          "internalType": "address",
          "name": "account",
          "type": "address"
        }
      ],
      "name": "getAccountBalance",
      "outputs": [
        {
          "internalType": "uint256",
          "name": "accountBalance",
          "type": "uint256"
        }
      ],
      "stateMutability": "view",
      "type": "function"
    },
    {
      "inputs": [
        {
          "internalType": "string",
          "name": "item_name",
          "type": "string"
        },
        {
          "internalType": "string",
          "name": "item_description",
          "type": "string"
        },
        {
          "internalType": "uint256",
          "name": "bidding_time",
          "type": "uint256"
        },
        {
          "internalType": "uint256",
          "name": "reveal_time",
          "type": "uint256"
        }
      ],
      "name": "auctionItem",
      "outputs": [],
      "stateMutability": "payable",
      "type": "function"
    },
    {
      "inputs": [],
      "name": "getactiveauctions",
      "outputs": [
        {
          "components": [
            {
              "internalType": "uint256",
              "name": "auction_id",
              "type": "uint256"
            },
            {
              "internalType": "address payable",
              "name": "beneficiary",
              "type": "address"
            },
            {
              "internalType": "uint256",
              "name": "biddingEnd",
              "type": "uint256"
            },
            {
              "internalType": "uint256",
              "name": "revealEnd",
              "type": "uint256"
            },
            {
              "internalType": "bool",
              "name": "ended",
              "type": "bool"
            },
            {
              "internalType": "string",
              "name": "item_name",
              "type": "string"
            },
            {
              "internalType": "string",
              "name": "item_description",
              "type": "string"
            },
            {
              "internalType": "bool",
              "name": "bidplaced",
              "type": "bool"
            },
            {
              "internalType": "bool",
              "name": "revealed",
              "type": "bool"
            }
          ],
          "internalType": "struct VikreyAuctionDefinitions.auction_active_listings[]",
          "name": "",
          "type": "tuple[]"
        }
      ],
      "stateMutability": "view",
      "type": "function"
    },
    {
      "inputs": [],
      "name": "getallauctions",
      "outputs": [
        {
          "components": [
            {
              "internalType": "uint256",
              "name": "auction_id",
              "type": "uint256"
            },
            {
              "internalType": "address payable",
              "name": "beneficiary",
              "type": "address"
            },
            {
              "internalType": "address payable",
              "name": "winner",
              "type": "address"
            },
            {
              "internalType": "uint256",
              "name": "biddingEnd",
              "type": "uint256"
            },
            {
              "internalType": "uint256",
              "name": "revealEnd",
              "type": "uint256"
            },
            {
              "internalType": "bool",
              "name": "ended",
              "type": "bool"
            },
            {
              "internalType": "bool",
              "name": "sold",
              "type": "bool"
            },
            {
              "internalType": "string",
              "name": "item_name",
              "type": "string"
            },
            {
              "internalType": "string",
              "name": "item_description",
              "type": "string"
            },
            {
              "internalType": "bool",
              "name": "bidplaced",
              "type": "bool"
            },
            {
              "internalType": "bool",
              "name": "revealed",
              "type": "bool"
            },
            {
              "internalType": "uint256",
              "name": "finalBid",
              "type": "uint256"
            },
            {
              "internalType": "string",
              "name": "pubkey",
              "type": "string"
            },
            {
              "internalType": "string",
              "name": "encryptedKey",
              "type": "string"
            }
          ],
          "internalType": "struct VikreyAuctionDefinitions.auction_all_listings[]",
          "name": "",
          "type": "tuple[]"
        }
      ],
      "stateMutability": "view",
      "type": "function"
    },
    {
      "inputs": [
        {
          "internalType": "bytes32",
          "name": "blindedBid",
          "type": "bytes32"
        },
        {
          "internalType": "uint256",
          "name": "auction_id",
          "type": "uint256"
        },
        {
          "internalType": "string",
          "name": "pubkey",
          "type": "string"
        }
      ],
      "name": "bid",
      "outputs": [],
      "stateMutability": "payable",
      "type": "function"
    },
    {
      "inputs": [
        {
          "internalType": "uint256",
          "name": "value",
          "type": "uint256"
        },
        {
          "internalType": "string",
          "name": "secret",
          "type": "string"
        },
        {
          "internalType": "uint256",
          "name": "auction_id",
          "type": "uint256"
        }
      ],
      "name": "reveal",
      "outputs": [],
      "stateMutability": "payable",
      "type": "function"
    },
    {
      "inputs": [
        {
          "internalType": "uint256",
          "name": "auction_id",
          "type": "uint256"
        }
      ],
      "name": "auctionEnd",
      "outputs": [],
      "stateMutability": "nonpayable",
      "type": "function"
    },
    {
      "inputs": [
        {
          "internalType": "uint256",
          "name": "auction_id",
          "type": "uint256"
        },
        {
          "internalType": "string",
          "name": "encryptedKey",
          "type": "string"
        }
      ],
      "name": "sellItem",
      "outputs": [],
      "stateMutability": "payable",
      "type": "function"
    },
    {
      "inputs": [
        {
          "internalType": "uint256",
          "name": "auction_id",
          "type": "uint256"
        }
      ],
      "name": "confirmDelivery",
      "outputs": [],
      "stateMutability": "payable",
      "type": "function"
    }
  ],
  "bytecode": "0x60806040526000600155600060025534801561001a57600080fd5b506142208061002a6000396000f3fe6080604052600436106100865760003560e01c806393423e9c1161005957806393423e9c1461011757806396a18f8014610154578063b5e360371461017f578063e701cfc21461019b578063fd84cb97146101b757610086565b80630754aebb1461008b57806332246e9f146100b65780634f3ae594146100df57806384febc4b146100fb575b600080fd5b34801561009757600080fd5b506100a06101d3565b6040516100ad9190612eb3565b60405180910390f35b3480156100c257600080fd5b506100dd60048036038101906100d89190612f0b565b610736565b005b6100f960048036038101906100f49190612f9d565b6110f0565b005b61011560048036038101906101109190613011565b6115b6565b005b34801561012357600080fd5b5061013e600480360381019061013991906130af565b6117d4565b60405161014b91906130eb565b60405180910390f35b34801561016057600080fd5b506101696117f5565b6040516101769190613294565b60405180910390f35b610199600480360381019061019491906132ec565b611b3f565b005b6101b560048036038101906101b09190613360565b611ead565b005b6101d160048036038101906101cc9190612f0b565b612272565b005b6060600060015467ffffffffffffffff8111156101f3576101f2613407565b5b60405190808252806020026020018201604052801561022c57816020015b6102196129f7565b8152602001906001900390816102115790505b50905060005b60015481101561072e57600080600083815260200190815260200160002090506000604051806020016040528060008152509050600073ffffffffffffffffffffffffffffffffffffffff168260070160019054906101000a900473ffffffffffffffffffffffffffffffffffffffff1673ffffffffffffffffffffffffffffffffffffffff16146103af578160120160008360070160019054906101000a900473ffffffffffffffffffffffffffffffffffffffff1673ffffffffffffffffffffffffffffffffffffffff1673ffffffffffffffffffffffffffffffffffffffff168152602001908152602001600020805461032e90613465565b80601f016020809104026020016040519081016040528092919081815260200182805461035a90613465565b80156103a75780601f1061037c576101008083540402835291602001916103a7565b820191906000526020600020905b81548152906001019060200180831161038a57829003601f168201915b505050505090505b604051806101c00160405280836000015481526020018360010160009054906101000a900473ffffffffffffffffffffffffffffffffffffffff1673ffffffffffffffffffffffffffffffffffffffff1681526020018360070160019054906101000a900473ffffffffffffffffffffffffffffffffffffffff1673ffffffffffffffffffffffffffffffffffffffff16815260200183600201548152602001836003015481526020018360040160009054906101000a900460ff16151581526020018360070160009054906101000a900460ff161515815260200183600501805461049a90613465565b80601f01602080910402602001604051908101604052809291908181526020018280546104c690613465565b80156105135780601f106104e857610100808354040283529160200191610513565b820191906000526020600020905b8154815290600101906020018083116104f657829003601f168201915b5050505050815260200183600601805461052c90613465565b80601f016020809104026020016040519081016040528092919081815260200182805461055890613465565b80156105a55780601f1061057a576101008083540402835291602001916105a5565b820191906000526020600020905b81548152906001019060200180831161058857829003601f168201915b505050505081526020018360100160003373ffffffffffffffffffffffffffffffffffffffff1673ffffffffffffffffffffffffffffffffffffffff16815260200190815260200160002060009054906101000a900460ff16151581526020018360110160003373ffffffffffffffffffffffffffffffffffffffff1673ffffffffffffffffffffffffffffffffffffffff16815260200190815260200160002060009054906101000a900460ff161515815260200183600c0154815260200182815260200183600d01805461067a90613465565b80601f01602080910402602001604051908101604052809291908181526020018280546106a690613465565b80156106f35780601f106106c8576101008083540402835291602001916106f3565b820191906000526020600020905b8154815290600101906020018083116106d657829003601f168201915b505050505081525084848151811061070e5761070d613496565b5b602002602001018190525050508080610726906134f4565b915050610232565b508091505090565b6000808281526020019081526020016000206003015480421161078e576040517f08c379a000000000000000000000000000000000000000000000000000000000815260040161078590613599565b60405180910390fd5b813373ffffffffffffffffffffffffffffffffffffffff1660008083815260200190815260200160002060010160009054906101000a900473ffffffffffffffffffffffffffffffffffffffff1673ffffffffffffffffffffffffffffffffffffffff1614610832576040517f08c379a00000000000000000000000000000000000000000000000000000000081526004016108299061362b565b60405180910390fd5b826000151560008083815260200190815260200160002060040160009054906101000a900460ff1615151461089c576040517f08c379a000000000000000000000000000000000000000000000000000000000815260040161089390613697565b60405180910390fd5b8360015481106108e1576040517f08c379a00000000000000000000000000000000000000000000000000000000081526004016108d890613729565b60405180910390fd5b600073ffffffffffffffffffffffffffffffffffffffff1660008087815260200190815260200160002060070160019054906101000a900473ffffffffffffffffffffffffffffffffffffffff1673ffffffffffffffffffffffffffffffffffffffff161480156109675750600080600087815260200190815260200160002060080154145b15610a2c577ff656db5d7eec16959704ab1442c4686390e8bdca6e2fd99d193f6871512359ea8560405161099b91906130eb565b60405180910390a17fd2aa34a4fdbbc6dff6a3e56f46e0f3ae2a31d7785ff3487aa5c95c642acea501856000806040516109d79392919061379d565b60405180910390a1600160008087815260200190815260200160002060040160006101000a81548160ff021916908315150217905550600160026000828254610a2091906137d4565b925050819055506110e9565b60008060008781526020019081526020016000206009015403610ce0577fd2aa34a4fdbbc6dff6a3e56f46e0f3ae2a31d7785ff3487aa5c95c642acea5018560008088815260200190815260200160002060070160019054906101000a900473ffffffffffffffffffffffffffffffffffffffff1660008089815260200190815260200160002060080154604051610ac69392919061385d565b60405180910390a160008086815260200190815260200160002060070160019054906101000a900473ffffffffffffffffffffffffffffffffffffffff16600080878152602001908152602001600020600b0160006101000a81548173ffffffffffffffffffffffffffffffffffffffff021916908373ffffffffffffffffffffffffffffffffffffffff16021790555060008086815260200190815260200160002060080154600080878152602001908152602001600020600c0181905550600160008087815260200190815260200160002060040160006101000a81548160ff021916908315150217905550600160026000828254610bc791906137d4565b925050819055507f9fa608827c3c4a8327a334f831d3ac579446f5314638ac0108bbaa17441e16a48560008088815260200190815260200160002060070160019054906101000a900473ffffffffffffffffffffffffffffffffffffffff1660008089815260200190815260200160002060120160008060008b8152602001908152602001600020600b0160009054906101000a900473ffffffffffffffffffffffffffffffffffffffff1673ffffffffffffffffffffffffffffffffffffffff1673ffffffffffffffffffffffffffffffffffffffff1681526020019081526020016000206000808a8152602001908152602001600020600c0154604051610cd3949392919061392d565b60405180910390a16110e8565b7fd2aa34a4fdbbc6dff6a3e56f46e0f3ae2a31d7785ff3487aa5c95c642acea5018560008088815260200190815260200160002060070160019054906101000a900473ffffffffffffffffffffffffffffffffffffffff1660008089815260200190815260200160002060090154604051610d5d9392919061385d565b60405180910390a160008086815260200190815260200160002060070160019054906101000a900473ffffffffffffffffffffffffffffffffffffffff16600080878152602001908152602001600020600b0160006101000a81548173ffffffffffffffffffffffffffffffffffffffff021916908373ffffffffffffffffffffffffffffffffffffffff16021790555060008086815260200190815260200160002060090154600080878152602001908152602001600020600c0181905550600160008087815260200190815260200160002060040160006101000a81548160ff021916908315150217905550600160026000828254610e5e91906137d4565b9250508190555060008060008781526020019081526020016000206009015460008088815260200190815260200160002060080154610e9d91906137d4565b6002610ea99190613979565b905080600080888152602001908152602001600020600f0160008060008a815260200190815260200160002060070160019054906101000a900473ffffffffffffffffffffffffffffffffffffffff1673ffffffffffffffffffffffffffffffffffffffff1673ffffffffffffffffffffffffffffffffffffffff1681526020019081526020016000206000828254610f4291906139bb565b9250508190555060005b600080888152602001908152602001600020600a0180549050811015610fd857610fc7876000808a8152602001908152602001600020600a018381548110610f9757610f96613496565b5b9060005260206000200160009054906101000a900473ffffffffffffffffffffffffffffffffffffffff166125e2565b80610fd1906134f4565b9050610f4c565b507f9fa608827c3c4a8327a334f831d3ac579446f5314638ac0108bbaa17441e16a486600080898152602001908152602001600020600b0160009054906101000a900473ffffffffffffffffffffffffffffffffffffffff166000808a815260200190815260200160002060120160008060008c8152602001908152602001600020600b0160009054906101000a900473ffffffffffffffffffffffffffffffffffffffff1673ffffffffffffffffffffffffffffffffffffffff1673ffffffffffffffffffffffffffffffffffffffff1681526020019081526020016000206000808b8152602001908152602001600020600c01546040516110de949392919061392d565b60405180910390a1505b5b5050505050565b60008082815260200190815260200160002060020154804211611148576040517f08c379a000000000000000000000000000000000000000000000000000000000815260040161113f90613599565b60405180910390fd5b600080838152602001908152602001600020600301548042106111a0576040517f08c379a000000000000000000000000000000000000000000000000000000000815260040161119790613a3b565b60405180910390fd5b826001151560008083815260200190815260200160002060100160003373ffffffffffffffffffffffffffffffffffffffff1673ffffffffffffffffffffffffffffffffffffffff16815260200190815260200160002060009054906101000a900460ff16151514611247576040517f08c379a000000000000000000000000000000000000000000000000000000000815260040161123e90613acd565b60405180910390fd5b83600154811061128c576040517f08c379a000000000000000000000000000000000000000000000000000000000815260040161128390613729565b60405180910390fd5b600080806000888152602001908152602001600020600e0160003373ffffffffffffffffffffffffffffffffffffffff1673ffffffffffffffffffffffffffffffffffffffff16815260200190815260200160002090508989896040516020016112f893929190613b29565b60405160208183030381529060405280519060200120816000015414611356577fad8c260aa7a48094cdeb8c07f33bcf4e3bb56893286c330706ca376c728e9f3e8733604051611349929190613b5b565b60405180910390a16115aa565b6000801b81600001819055506000806000898152602001908152602001600020600a01805490509050336000808a8152602001908152602001600020600a0182815481106113a7576113a6613496565b5b9060005260206000200160006101000a81548173ffffffffffffffffffffffffffffffffffffffff021916908373ffffffffffffffffffffffffffffffffffffffff16021790555060016000808a815260200190815260200160002060110160003373ffffffffffffffffffffffffffffffffffffffff1673ffffffffffffffffffffffffffffffffffffffff16815260200190815260200160002060006101000a81548160ff02191690831515021790555081600101548361146a91906139bb565b92508a60026114799190613979565b8260010154106114ec5761148e88338d6127e5565b156114ae578a60026114a09190613979565b836114ab91906137d4565b92505b7fcb1784faad642d48c787676118783766577faa10d9c69eb1fbb40c3baaac87d188336040516114df929190613b5b565b60405180910390a1611526565b7f2aef0deb49f8c134c725c0d4075973ab3c581f0d16cce112ab4ed4b26b9ddaa3883360405161151d929190613b5b565b60405180910390a15b7f0ce627ddf6b4fdb8de00ae62e2f2b8dee6a4226b75fccd3d6692329c8e0d2c1c88338560405161155993929190613b84565b60405180910390a13373ffffffffffffffffffffffffffffffffffffffff166108fc849081150290604051600060405180830381858888f193505050501580156115a7573d6000803e3d6000fd5b50505b50505050505050505050565b8260015481106115fb576040517f08c379a00000000000000000000000000000000000000000000000000000000081526004016115f290613729565b60405180910390fd5b836001151560008083815260200190815260200160002060040160009054906101000a900460ff16151514611665576040517f08c379a000000000000000000000000000000000000000000000000000000000815260040161165c90613c2d565b60405180910390fd5b843373ffffffffffffffffffffffffffffffffffffffff1660008083815260200190815260200160002060010160009054906101000a900473ffffffffffffffffffffffffffffffffffffffff1673ffffffffffffffffffffffffffffffffffffffff1614611709576040517f08c379a00000000000000000000000000000000000000000000000000000000081526004016117009061362b565b60405180910390fd5b600080878152602001908152602001600020600c0154600261172b9190613979565b341461176c576040517f08c379a000000000000000000000000000000000000000000000000000000000815260040161176390613cbf565b60405180910390fd5b8484600080898152602001908152602001600020600d019182611790929190613e77565b507f491466b860bd766ceeb3f3a2a797dc9bec299c959d192453c4bf6daf2c6f420f8686866040516117c493929190613b29565b60405180910390a1505050505050565b60008173ffffffffffffffffffffffffffffffffffffffff16319050919050565b606060008060025467ffffffffffffffff81111561181657611815613407565b5b60405190808252806020026020018201604052801561184f57816020015b61183c612a9a565b8152602001906001900390816118345790505b50905060005b600154811015611b36576000151560008083815260200190815260200160002060040160009054906101000a900460ff16151503611b235760008060008381526020019081526020016000209050604051806101200160405280826000015481526020018260010160009054906101000a900473ffffffffffffffffffffffffffffffffffffffff1673ffffffffffffffffffffffffffffffffffffffff16815260200182600201548152602001826003015481526020018260040160009054906101000a900460ff161515815260200182600501805461193590613465565b80601f016020809104026020016040519081016040528092919081815260200182805461196190613465565b80156119ae5780601f10611983576101008083540402835291602001916119ae565b820191906000526020600020905b81548152906001019060200180831161199157829003601f168201915b505050505081526020018260060180546119c790613465565b80601f01602080910402602001604051908101604052809291908181526020018280546119f390613465565b8015611a405780601f10611a1557610100808354040283529160200191611a40565b820191906000526020600020905b815481529060010190602001808311611a2357829003601f168201915b505050505081526020018260100160003373ffffffffffffffffffffffffffffffffffffffff1673ffffffffffffffffffffffffffffffffffffffff16815260200190815260200160002060009054906101000a900460ff16151581526020018260110160003373ffffffffffffffffffffffffffffffffffffffff1673ffffffffffffffffffffffffffffffffffffffff16815260200190815260200160002060009054906101000a900460ff161515815250838581518110611b0757611b06613496565b5b6020026020010181905250600184611b1f91906139bb565b9350505b8080611b2e906134f4565b915050611855565b50809250505090565b60008084815260200190815260200160002060020154804210611b97576040517f08c379a0000000000000000000000000000000000000000000000000000000008152600401611b8e90613a3b565b60405180910390fd5b8360008082815260200190815260200160002060010160009054906101000a900473ffffffffffffffffffffffffffffffffffffffff1673ffffffffffffffffffffffffffffffffffffffff163373ffffffffffffffffffffffffffffffffffffffff1603611c3b576040517f08c379a0000000000000000000000000000000000000000000000000000000008152600401611c3290613f93565b60405180910390fd5b8460008082815260200190815260200160002060100160003373ffffffffffffffffffffffffffffffffffffffff1673ffffffffffffffffffffffffffffffffffffffff16815260200190815260200160002060009054906101000a900460ff1615611cdc576040517f08c379a0000000000000000000000000000000000000000000000000000000008152600401611cd390613fff565b60405180910390fd5b856001548110611d21576040517f08c379a0000000000000000000000000000000000000000000000000000000008152600401611d1890613729565b60405180910390fd5b604051806040016040528089815260200134815250600080898152602001908152602001600020600e0160003373ffffffffffffffffffffffffffffffffffffffff1673ffffffffffffffffffffffffffffffffffffffff1681526020019081526020016000206000820151816000015560208201518160010155905050600160008089815260200190815260200160002060100160003373ffffffffffffffffffffffffffffffffffffffff1673ffffffffffffffffffffffffffffffffffffffff16815260200190815260200160002060006101000a81548160ff02191690831515021790555085856000808a815260200190815260200160002060120160003373ffffffffffffffffffffffffffffffffffffffff1673ffffffffffffffffffffffffffffffffffffffff1681526020019081526020016000209182611e6b929190613e77565b507f4b6c7d33d8244d6b35f1a8d35f6d19860fea50d46740345c395123753dd782fa33604051611e9b919061401f565b60405180910390a15050505050505050565b600060015490506001806000828254611ec691906139bb565b92505081905550600160026000828254611ee091906139bb565b9250508190555060008342611ef591906139bb565b905060008382611f0591906139bb565b905082600080858152602001908152602001600020600001819055503360008085815260200190815260200160002060010160006101000a81548173ffffffffffffffffffffffffffffffffffffffff021916908373ffffffffffffffffffffffffffffffffffffffff16021790555081600080858152602001908152602001600020600201819055508060008085815260200190815260200160002060030181905550600080600085815260200190815260200160002060040160006101000a81548160ff02191690831515021790555088886000808681526020019081526020016000206005019182611ffb929190613e77565b5086866000808681526020019081526020016000206006019182612020929190613e77565b50600080600085815260200190815260200160002060070160006101000a81548160ff021916908315150217905550600080600085815260200190815260200160002060070160016101000a81548173ffffffffffffffffffffffffffffffffffffffff021916908373ffffffffffffffffffffffffffffffffffffffff160217905550600080600085815260200190815260200160002060080181905550600080600085815260200190815260200160002060090181905550600067ffffffffffffffff8111156120f5576120f4613407565b5b6040519080825280602002602001820160405280156121235781602001602082028036833780820191505090505b50600080858152602001908152602001600020600a01908051906020019061214c929190612b02565b506000806000858152602001908152602001600020600b0160006101000a81548173ffffffffffffffffffffffffffffffffffffffff021916908373ffffffffffffffffffffffffffffffffffffffff1602179055506000806000858152602001908152602001600020600c018190555060405180602001604052806000815250600080858152602001908152602001600020600d0190816121ee919061403a565b507f58c55e05f36335d586220e73c744c2bee55b978dc632f7bae51fd53b68b967de838a8a8a8a60405161222695949392919061410c565b60405180910390a17f407f117d881ed92fbecf3649fb9568d7191c91329e6cef0cb5fc97916ef0cead838360405161225f929190614155565b60405180910390a1505050505050505050565b8060015481106122b7576040517f08c379a00000000000000000000000000000000000000000000000000000000081526004016122ae90613729565b60405180910390fd5b81600080828152602001908152602001600020600b0160009054906101000a900473ffffffffffffffffffffffffffffffffffffffff1673ffffffffffffffffffffffffffffffffffffffff163373ffffffffffffffffffffffffffffffffffffffff161461235b576040517f08c379a0000000000000000000000000000000000000000000000000000000008152600401612352906141ca565b60405180910390fd5b826001151560008083815260200190815260200160002060040160009054906101000a900460ff161515146123c5576040517f08c379a00000000000000000000000000000000000000000000000000000000081526004016123bc90613c2d565b60405180910390fd5b6000806000868152602001908152602001600020600c0154905060008160036123ee9190613979565b90506000806000888152602001908152602001600020600f0160008060008a8152602001908152602001600020600b0160009054906101000a900473ffffffffffffffffffffffffffffffffffffffff1673ffffffffffffffffffffffffffffffffffffffff1673ffffffffffffffffffffffffffffffffffffffff16815260200190815260200160002081905550600160008088815260200190815260200160002060070160006101000a81548160ff02191690831515021790555060008087815260200190815260200160002060010160009054906101000a900473ffffffffffffffffffffffffffffffffffffffff1673ffffffffffffffffffffffffffffffffffffffff166108fc829081150290604051600060405180830381858888f19350505050158015612526573d6000803e3d6000fd5b50600080878152602001908152602001600020600b0160009054906101000a900473ffffffffffffffffffffffffffffffffffffffff1673ffffffffffffffffffffffffffffffffffffffff166108fc839081150290604051600060405180830381858888f193505050501580156125a2573d6000803e3d6000fd5b507f6cbc019d5c94717baad0acdfa06c66c2a314a9f71c5486a1034adb0f07a57e65866040516125d291906130eb565b60405180910390a1505050505050565b816001151560008083815260200190815260200160002060040160009054906101000a900460ff1615151461264c576040517f08c379a000000000000000000000000000000000000000000000000000000000815260040161264390613c2d565b60405180910390fd5b6000806000858152602001908152602001600020600f0160008473ffffffffffffffffffffffffffffffffffffffff1673ffffffffffffffffffffffffffffffffffffffff1681526020019081526020016000205411156127e0576000806000858152602001908152602001600020600f0160008473ffffffffffffffffffffffffffffffffffffffff1673ffffffffffffffffffffffffffffffffffffffff1681526020019081526020016000205490506000806000868152602001908152602001600020600f0160008573ffffffffffffffffffffffffffffffffffffffff1673ffffffffffffffffffffffffffffffffffffffff1681526020019081526020016000208190555060008390508073ffffffffffffffffffffffffffffffffffffffff166108fc839081150290604051600060405180830381858888f193505050501580156127a1573d6000803e3d6000fd5b507fa01ed4ff1bfc084518bd795b4114da41c800c9ae1fc5e594cb505cb4c0c3fae18585846040516127d59392919061385d565b60405180910390a150505b505050565b600080600085815260200190815260200160002060090154821161280c57600090506129f0565b60008085815260200190815260200160002060090154821180156128455750600080858152602001908152602001600020600801548211155b1561286d578160008086815260200190815260200160002060090181905550600090506129f0565b600080858152602001908152602001600020600801548211156129ef57600080858152602001908152602001600020600801546000808681526020019081526020016000206009018190555081600080868152602001908152602001600020600801819055506000808581526020019081526020016000206009015460026128f59190613979565b600080868152602001908152602001600020600f01600080600088815260200190815260200160002060070160019054906101000a900473ffffffffffffffffffffffffffffffffffffffff1673ffffffffffffffffffffffffffffffffffffffff1673ffffffffffffffffffffffffffffffffffffffff168152602001908152602001600020600082825461298b91906139bb565b925050819055508260008086815260200190815260200160002060070160016101000a81548173ffffffffffffffffffffffffffffffffffffffff021916908373ffffffffffffffffffffffffffffffffffffffff160217905550600190506129f0565b5b9392505050565b604051806101c0016040528060008152602001600073ffffffffffffffffffffffffffffffffffffffff168152602001600073ffffffffffffffffffffffffffffffffffffffff168152602001600081526020016000815260200160001515815260200160001515815260200160608152602001606081526020016000151581526020016000151581526020016000815260200160608152602001606081525090565b60405180610120016040528060008152602001600073ffffffffffffffffffffffffffffffffffffffff168152602001600081526020016000815260200160001515815260200160608152602001606081526020016000151581526020016000151581525090565b828054828255906000526020600020908101928215612b7b579160200282015b82811115612b7a5782518260006101000a81548173ffffffffffffffffffffffffffffffffffffffff021916908373ffffffffffffffffffffffffffffffffffffffff16021790555091602001919060010190612b22565b5b509050612b889190612b8c565b5090565b5b80821115612ba5576000816000905550600101612b8d565b5090565b600081519050919050565b600082825260208201905092915050565b6000819050602082019050919050565b6000819050919050565b612be881612bd5565b82525050565b600073ffffffffffffffffffffffffffffffffffffffff82169050919050565b6000612c1982612bee565b9050919050565b612c2981612c0e565b82525050565b60008115159050919050565b612c4481612c2f565b82525050565b600081519050919050565b600082825260208201905092915050565b60005b83811015612c84578082015181840152602081019050612c69565b60008484015250505050565b6000601f19601f8301169050919050565b6000612cac82612c4a565b612cb68185612c55565b9350612cc6818560208601612c66565b612ccf81612c90565b840191505092915050565b60006101c083016000830151612cf36000860182612bdf565b506020830151612d066020860182612c20565b506040830151612d196040860182612c20565b506060830151612d2c6060860182612bdf565b506080830151612d3f6080860182612bdf565b5060a0830151612d5260a0860182612c3b565b5060c0830151612d6560c0860182612c3b565b5060e083015184820360e0860152612d7d8282612ca1565b915050610100830151848203610100860152612d998282612ca1565b915050610120830151612db0610120860182612c3b565b50610140830151612dc5610140860182612c3b565b50610160830151612dda610160860182612bdf565b50610180830151848203610180860152612df48282612ca1565b9150506101a08301518482036101a0860152612e108282612ca1565b9150508091505092915050565b6000612e298383612cda565b905092915050565b6000602082019050919050565b6000612e4982612ba9565b612e538185612bb4565b935083602082028501612e6585612bc5565b8060005b85811015612ea15784840389528151612e828582612e1d565b9450612e8d83612e31565b925060208a01995050600181019050612e69565b50829750879550505050505092915050565b60006020820190508181036000830152612ecd8184612e3e565b905092915050565b600080fd5b600080fd5b612ee881612bd5565b8114612ef357600080fd5b50565b600081359050612f0581612edf565b92915050565b600060208284031215612f2157612f20612ed5565b5b6000612f2f84828501612ef6565b91505092915050565b600080fd5b600080fd5b600080fd5b60008083601f840112612f5d57612f5c612f38565b5b8235905067ffffffffffffffff811115612f7a57612f79612f3d565b5b602083019150836001820283011115612f9657612f95612f42565b5b9250929050565b60008060008060608587031215612fb757612fb6612ed5565b5b6000612fc587828801612ef6565b945050602085013567ffffffffffffffff811115612fe657612fe5612eda565b5b612ff287828801612f47565b9350935050604061300587828801612ef6565b91505092959194509250565b60008060006040848603121561302a57613029612ed5565b5b600061303886828701612ef6565b935050602084013567ffffffffffffffff81111561305957613058612eda565b5b61306586828701612f47565b92509250509250925092565b600061307c82612bee565b9050919050565b61308c81613071565b811461309757600080fd5b50565b6000813590506130a981613083565b92915050565b6000602082840312156130c5576130c4612ed5565b5b60006130d38482850161309a565b91505092915050565b6130e581612bd5565b82525050565b600060208201905061310060008301846130dc565b92915050565b600081519050919050565b600082825260208201905092915050565b6000819050602082019050919050565b60006101208301600083015161314b6000860182612bdf565b50602083015161315e6020860182612c20565b5060408301516131716040860182612bdf565b5060608301516131846060860182612bdf565b5060808301516131976080860182612c3b565b5060a083015184820360a08601526131af8282612ca1565b91505060c083015184820360c08601526131c98282612ca1565b91505060e08301516131de60e0860182612c3b565b506101008301516131f3610100860182612c3b565b508091505092915050565b600061320a8383613132565b905092915050565b6000602082019050919050565b600061322a82613106565b6132348185613111565b93508360208202850161324685613122565b8060005b85811015613282578484038952815161326385826131fe565b945061326e83613212565b925060208a0199505060018101905061324a565b50829750879550505050505092915050565b600060208201905081810360008301526132ae818461321f565b905092915050565b6000819050919050565b6132c9816132b6565b81146132d457600080fd5b50565b6000813590506132e6816132c0565b92915050565b6000806000806060858703121561330657613305612ed5565b5b6000613314878288016132d7565b945050602061332587828801612ef6565b935050604085013567ffffffffffffffff81111561334657613345612eda565b5b61335287828801612f47565b925092505092959194509250565b6000806000806000806080878903121561337d5761337c612ed5565b5b600087013567ffffffffffffffff81111561339b5761339a612eda565b5b6133a789828a01612f47565b9650965050602087013567ffffffffffffffff8111156133ca576133c9612eda565b5b6133d689828a01612f47565b945094505060406133e989828a01612ef6565b92505060606133fa89828a01612ef6565b9150509295509295509295565b7f4e487b7100000000000000000000000000000000000000000000000000000000600052604160045260246000fd5b7f4e487b7100000000000000000000000000000000000000000000000000000000600052602260045260246000fd5b6000600282049050600182168061347d57607f821691505b6020821081036134905761348f613436565b5b50919050565b7f4e487b7100000000000000000000000000000000000000000000000000000000600052603260045260246000fd5b7f4e487b7100000000000000000000000000000000000000000000000000000000600052601160045260246000fd5b60006134ff82612bd5565b91507fffffffffffffffffffffffffffffffffffffffffffffffffffffffffffffffff8203613531576135306134c5565b5b600182019050919050565b600082825260208201905092915050565b7f6265666f72652074696d65000000000000000000000000000000000000000000600082015250565b6000613583600b8361353c565b915061358e8261354d565b602082019050919050565b600060208201905081810360008301526135b281613576565b9050919050565b7f4f6e6c792042656e65666963696172792063616e20656e64207468652061756360008201527f74696f6e00000000000000000000000000000000000000000000000000000000602082015250565b600061361560248361353c565b9150613620826135b9565b604082019050919050565b6000602082019050818103600083015261364481613608565b9050919050565b7f41756374696f6e20616c726561647920656e6465640000000000000000000000600082015250565b600061368160158361353c565b915061368c8261364b565b602082019050919050565b600060208201905081810360008301526136b081613674565b9050919050565b7f41756374696f6e2049642070726f766964656420646f65736e2774206578697360008201527f7400000000000000000000000000000000000000000000000000000000000000602082015250565b600061371360218361353c565b915061371e826136b7565b604082019050919050565b6000602082019050818103600083015261374281613706565b9050919050565b61375281613071565b82525050565b6000819050919050565b6000819050919050565b600061378761378261377d84613758565b613762565b612bd5565b9050919050565b6137978161376c565b82525050565b60006060820190506137b260008301866130dc565b6137bf6020830185613749565b6137cc604083018461378e565b949350505050565b60006137df82612bd5565b91506137ea83612bd5565b9250828203905081811115613802576138016134c5565b5b92915050565b600061382361381e61381984612bee565b613762565b612bee565b9050919050565b600061383582613808565b9050919050565b60006138478261382a565b9050919050565b6138578161383c565b82525050565b600060608201905061387260008301866130dc565b61387f602083018561384e565b61388c60408301846130dc565b949350505050565b60008190508160005260206000209050919050565b600081546138b681613465565b6138c0818661353c565b945060018216600081146138db57600181146138f157613924565b60ff198316865281151560200286019350613924565b6138fa85613894565b60005b8381101561391c578154818901526001820191506020810190506138fd565b808801955050505b50505092915050565b600060808201905061394260008301876130dc565b61394f602083018661384e565b818103604083015261396181856138a9565b905061397060608301846130dc565b95945050505050565b600061398482612bd5565b915061398f83612bd5565b925082820261399d81612bd5565b915082820484148315176139b4576139b36134c5565b5b5092915050565b60006139c682612bd5565b91506139d183612bd5565b92508282019050808211156139e9576139e86134c5565b5b92915050565b7f41667465722074696d6500000000000000000000000000000000000000000000600082015250565b6000613a25600a8361353c565b9150613a30826139ef565b602082019050919050565b60006020820190508181036000830152613a5481613a18565b9050919050565b7f4469646e277420706c6163652061206265742c6e6f20706f696e7420696e207260008201527f657665616c696e67207468652062696400000000000000000000000000000000602082015250565b6000613ab760308361353c565b9150613ac282613a5b565b604082019050919050565b60006020820190508181036000830152613ae681613aaa565b9050919050565b82818337600083830152505050565b6000613b08838561353c565b9350613b15838584613aed565b613b1e83612c90565b840190509392505050565b6000604082019050613b3e60008301866130dc565b8181036020830152613b51818486613afc565b9050949350505050565b6000604082019050613b7060008301856130dc565b613b7d6020830184613749565b9392505050565b6000606082019050613b9960008301866130dc565b613ba66020830185613749565b613bb360408301846130dc565b949350505050565b7f43616e742041736b20726566756e642c61756374696f6e206e6f7420656e646560008201527f6400000000000000000000000000000000000000000000000000000000000000602082015250565b6000613c1760218361353c565b9150613c2282613bbb565b604082019050919050565b60006020820190508181036000830152613c4681613c0a565b9050919050565b7f596f752068617665206e6f74207061696420726967687420746865207365637560008201527f72697479206465706f7369740000000000000000000000000000000000000000602082015250565b6000613ca9602c8361353c565b9150613cb482613c4d565b604082019050919050565b60006020820190508181036000830152613cd881613c9c565b9050919050565b600082905092915050565b60006020601f8301049050919050565b600082821b905092915050565b600060088302613d377fffffffffffffffffffffffffffffffffffffffffffffffffffffffffffffffff82613cfa565b613d418683613cfa565b95508019841693508086168417925050509392505050565b6000613d74613d6f613d6a84612bd5565b613762565b612bd5565b9050919050565b6000819050919050565b613d8e83613d59565b613da2613d9a82613d7b565b848454613d07565b825550505050565b600090565b613db7613daa565b613dc2818484613d85565b505050565b5b81811015613de657613ddb600082613daf565b600181019050613dc8565b5050565b601f821115613e2b57613dfc81613894565b613e0584613cea565b81016020851015613e14578190505b613e28613e2085613cea565b830182613dc7565b50505b505050565b600082821c905092915050565b6000613e4e60001984600802613e30565b1980831691505092915050565b6000613e678383613e3d565b9150826002028217905092915050565b613e818383613cdf565b67ffffffffffffffff811115613e9a57613e99613407565b5b613ea48254613465565b613eaf828285613dea565b6000601f831160018114613ede5760008415613ecc578287013590505b613ed68582613e5b565b865550613f3e565b601f198416613eec86613894565b60005b82811015613f1457848901358255600182019150602085019450602081019050613eef565b86831015613f315784890135613f2d601f891682613e3d565b8355505b6001600288020188555050505b50505050505050565b7f42656e65666963696172792063616e6e6f742062696400000000000000000000600082015250565b6000613f7d60168361353c565b9150613f8882613f47565b602082019050919050565b60006020820190508181036000830152613fac81613f70565b9050919050565b7f42696464657220416c726561647920706c616365642074686569722062696400600082015250565b6000613fe9601f8361353c565b9150613ff482613fb3565b602082019050919050565b6000602082019050818103600083015261401881613fdc565b9050919050565b60006020820190506140346000830184613749565b92915050565b61404382612c4a565b67ffffffffffffffff81111561405c5761405b613407565b5b6140668254613465565b614071828285613dea565b600060209050601f8311600181146140a45760008415614092578287015190505b61409c8582613e5b565b865550614104565b601f1984166140b286613894565b60005b828110156140da578489015182556001820191506020850194506020810190506140b5565b868310156140f757848901516140f3601f891682613e3d565b8355505b6001600288020188555050505b505050505050565b600060608201905061412160008301886130dc565b8181036020830152614134818688613afc565b90508181036040830152614149818486613afc565b90509695505050505050565b600060408201905061416a60008301856130dc565b61417760208301846130dc565b9392505050565b7f4f6e6c792057696e6e65722063616e20636f6e6669726d207075726368617365600082015250565b60006141b460208361353c565b91506141bf8261417e565b602082019050919050565b600060208201905081810360008301526141e3816141a7565b905091905056fea26469706673582212205ffbf21ccc4a619bbdc07c5458eac85817f3e6df4f8fa582b6882b2ecf5b325464736f6c63430008110033",
  "immutableReferences": {},
  "source": "/// SPDX-License-Identifier: MIT\r\npragma solidity >=0.4.22 <0.9.0;\r\npragma experimental ABIEncoderV2;\r\nimport './VikreyAuctionDefinitions.sol';\r\n\r\ncontract VikreyAuction is VikreyAuctionDefinitions{\r\n\r\n   \r\n\r\n    mapping(uint256 => auctions) private Auctions;\r\n\r\n    uint256 current_auction_id = 0;\r\n    uint256 activeauctions = 0;\r\n\r\n    modifier validBidder(uint256 auction_id) {\r\n        require(\r\n            msg.sender != Auctions[auction_id].beneficiary,\r\n            \"Beneficiary cannot bid\"\r\n        );\r\n        _;\r\n    }\r\n    modifier newBidder(uint256 auction_id) {\r\n        require(\r\n            !Auctions[auction_id].bidded[msg.sender],\r\n            \"Bidder Already placed their bid\"\r\n        );\r\n        _;\r\n    }\r\n\r\n    modifier alreadyBidder(uint256 auction_id) {\r\n        require(\r\n            Auctions[auction_id].bidded[msg.sender] == true,\r\n            \"Didn't place a bet,no point in revealing the bid\"\r\n        );\r\n        _;\r\n    }\r\n\r\n    modifier onlyBeneficiary(uint256 auction_id) {\r\n        require(\r\n            Auctions[auction_id].beneficiary == msg.sender,\r\n            \"Only Beneficiary can end the auction\"\r\n        );\r\n        _;\r\n    }\r\n    modifier auctionActive(uint256 auction_id) {\r\n        require(Auctions[auction_id].ended == false, \"Auction already ended\");\r\n        _;\r\n    }\r\n    modifier auctionEnded(uint256 auction_id) {\r\n        require(\r\n            Auctions[auction_id].ended == true,\r\n            \"Cant Ask refund,auction not ended\"\r\n        );\r\n        _;\r\n    }\r\n\r\n    //functions\r\n    modifier validAuctionId(uint256 auction_id) {\r\n        require(\r\n            auction_id < current_auction_id,\r\n            \"Auction Id provided doesn't exist\"\r\n        );\r\n        _;\r\n    }\r\n    modifier onlyWinner(uint256 auction_id) {\r\n        require(\r\n            msg.sender == Auctions[auction_id].winner,\r\n            \"Only Winner can confirm purchase\"\r\n        );\r\n        _;\r\n    }\r\n\r\n    function getAccountBalance(address account)\r\n        public\r\n        view\r\n        returns (uint256 accountBalance)\r\n    {\r\n        accountBalance = account.balance;\r\n    }\r\n\r\n    function auctionItem(\r\n        string calldata item_name,\r\n        string calldata item_description,\r\n        uint256 bidding_time,\r\n        uint256 reveal_time\r\n    ) external payable {\r\n        uint256 auction_id = current_auction_id;\r\n        current_auction_id += 1;\r\n        activeauctions += 1;\r\n        uint256 bidding_end = block.timestamp + bidding_time;\r\n        uint256 reveal_end = bidding_end + reveal_time;\r\n\r\n        Auctions[auction_id].auction_id = auction_id;\r\n        Auctions[auction_id].beneficiary = payable(msg.sender);\r\n        Auctions[auction_id].biddingEnd = bidding_end;\r\n        Auctions[auction_id].revealEnd = reveal_end;\r\n        Auctions[auction_id].ended = false;\r\n        Auctions[auction_id].item_name = item_name;\r\n        Auctions[auction_id].item_description = item_description;\r\n        Auctions[auction_id].sold = false;\r\n        Auctions[auction_id].highestBidder = payable(address(0));\r\n        Auctions[auction_id].highestBid = 0;\r\n        Auctions[auction_id].secondHighestBid = 0;\r\n        Auctions[auction_id].revealedBidders = new address payable[](0);\r\n        Auctions[auction_id].winner = payable(address(0));\r\n        Auctions[auction_id].winningBid = 0;\r\n        Auctions[auction_id].encryptedKey = \"\";\r\n        emit AuctionStarted(auction_id, item_name, item_description);\r\n        emit BiddingStarted(auction_id, bidding_end);\r\n    }\r\n\r\n    function getactiveauctions()\r\n        external\r\n        view\r\n        returns (auction_active_listings[] memory)\r\n    {\r\n        uint256 currentIndex = 0;\r\n        auction_active_listings[]\r\n            memory active_auctions = new auction_active_listings[](\r\n                activeauctions\r\n            );\r\n        for (uint256 i = 0; i < current_auction_id; i++) {\r\n            if (Auctions[i].ended == false) {\r\n                auctions storage currentauction = Auctions[i];\r\n                active_auctions[currentIndex] = auction_active_listings(\r\n                    currentauction.auction_id,\r\n                    currentauction.beneficiary,\r\n                    currentauction.biddingEnd,\r\n                    currentauction.revealEnd,\r\n                    currentauction.ended,\r\n                    currentauction.item_name,\r\n                    currentauction.item_description,\r\n                    currentauction.bidded[msg.sender],\r\n                    currentauction.revealed[msg.sender]\r\n                );\r\n                currentIndex += 1;\r\n            }\r\n        }\r\n        return active_auctions;\r\n    }\r\n\r\n    function getallauctions()\r\n        external\r\n        view\r\n        returns (auction_all_listings[] memory)\r\n    {\r\n        auction_all_listings[] memory all_auctions = new auction_all_listings[](\r\n            current_auction_id\r\n        );\r\n        for (uint256 i = 0; i < current_auction_id; i++) {\r\n            auctions storage currentauction = Auctions[i];\r\n            string memory pubkey = \"\";\r\n            if (currentauction.highestBidder != address(0))\r\n                pubkey = currentauction.pubkey[currentauction.highestBidder];\r\n            all_auctions[i] = auction_all_listings(\r\n                currentauction.auction_id,\r\n                currentauction.beneficiary,\r\n                currentauction.highestBidder,\r\n                currentauction.biddingEnd,\r\n                currentauction.revealEnd,\r\n                currentauction.ended,\r\n                currentauction.sold,\r\n                currentauction.item_name,\r\n                currentauction.item_description,\r\n                currentauction.bidded[msg.sender],\r\n                currentauction.revealed[msg.sender],\r\n                currentauction.winningBid,\r\n                pubkey,\r\n                currentauction.encryptedKey\r\n            );\r\n        }\r\n        return all_auctions;\r\n    }\r\n\r\n    function bid(\r\n        bytes32 blindedBid,\r\n        uint256 auction_id,\r\n        string calldata pubkey\r\n    )\r\n        external\r\n        payable\r\n        onlyBefore(Auctions[auction_id].biddingEnd)\r\n        validBidder(auction_id)\r\n        newBidder(auction_id)\r\n        validAuctionId(auction_id)\r\n    {\r\n        Auctions[auction_id].bids[msg.sender] = Bid(blindedBid, msg.value);\r\n        Auctions[auction_id].bidded[msg.sender] = true;\r\n        Auctions[auction_id].pubkey[msg.sender] = pubkey;\r\n        emit BidMade(msg.sender);\r\n    }\r\n\r\n    function reveal(\r\n        uint256 value,\r\n        //bool fake,\r\n        string calldata secret,\r\n        uint256 auction_id\r\n    )\r\n        external\r\n        payable\r\n        onlyAfter(Auctions[auction_id].biddingEnd)\r\n        onlyBefore(Auctions[auction_id].revealEnd)\r\n        alreadyBidder(auction_id)\r\n        validAuctionId(auction_id)\r\n    {\r\n        uint256 refund = 0;\r\n        //get the bid placed by the user\r\n        Bid storage bidToCheck = Auctions[auction_id].bids[msg.sender];\r\n\r\n        // improper revealing\r\n        if (bidToCheck.bidHash != keccak256(abi.encode(value, secret))) {\r\n            // Bid was not actually revealed.\r\n            // Do not refund deposit.\r\n            emit BidRevealFailed(auction_id, msg.sender);\r\n        } else {\r\n            // Make it impossible for the sender to re-claim\r\n            bidToCheck.bidHash = bytes32(0);\r\n\r\n            uint revealedBiddersLength = Auctions[auction_id].revealedBidders.length;\r\n            Auctions[auction_id].revealedBidders[revealedBiddersLength] = payable(msg.sender);\r\n            Auctions[auction_id].revealed[msg.sender] = true;\r\n            refund += bidToCheck.deposit;\r\n            if (bidToCheck.deposit >= 2 * value) {\r\n                if (placeBid(auction_id, payable(msg.sender), value))\r\n                    refund -= 2 * value;\r\n                emit BidRevealed(auction_id, msg.sender);\r\n            } else emit DepositNotEnough(auction_id, msg.sender);\r\n            // the same deposit.\r\n            emit BalanceRefunded(auction_id, msg.sender, refund);\r\n            payable(msg.sender).transfer(refund);\r\n        }\r\n    }\r\n\r\n    function placeBid(\r\n        uint256 auction_id,\r\n        address payable bidder,\r\n        uint256 value\r\n    ) internal returns (bool success) {\r\n        if (value <= Auctions[auction_id].secondHighestBid) {\r\n            return false;\r\n        } else if (\r\n            value > Auctions[auction_id].secondHighestBid &&\r\n            value <= Auctions[auction_id].highestBid\r\n        ) {\r\n\r\n            Auctions[auction_id].secondHighestBid = value;\r\n            return false;\r\n            //  Auctions[auction_id].secondHighestBidder = bidder;\r\n        } else if (value > Auctions[auction_id].highestBid) {\r\n          \r\n            Auctions[auction_id].secondHighestBid = Auctions[auction_id]\r\n                .highestBid;\r\n            Auctions[auction_id].highestBid = value;\r\n            Auctions[auction_id].pendingReturns[\r\n                Auctions[auction_id].highestBidder\r\n            ] += 2 * Auctions[auction_id].secondHighestBid;\r\n\r\n            Auctions[auction_id].highestBidder = bidder;\r\n            return true;\r\n\r\n        }\r\n\r\n    }\r\n\r\n\r\n    function withdraw(uint256 auction_id, address payable bidder)\r\n        internal\r\n        auctionEnded(auction_id)\r\n    {\r\n        //emit BidderRefunded(auction_id,msg.sender, Auctions[auction_id].pendingReturns[msg.sender]);\r\n        if (Auctions[auction_id].pendingReturns[bidder] > 0) {\r\n            uint256 value = Auctions[auction_id].pendingReturns[bidder];\r\n            Auctions[auction_id].pendingReturns[bidder] = 0;\r\n            address payable payable_sender = bidder;\r\n            payable_sender.transfer(value);\r\n            emit BidderRefunded(auction_id, bidder, value);\r\n        }\r\n    }\r\n\r\n    function auctionEnd(uint256 auction_id)\r\n        external\r\n        onlyAfter(Auctions[auction_id].revealEnd)\r\n        onlyBeneficiary(auction_id)\r\n        auctionActive(auction_id)\r\n        validAuctionId(auction_id)\r\n    {\r\n\r\n        if (\r\n            Auctions[auction_id].highestBidder == address(0) &&\r\n            Auctions[auction_id].highestBid == 0\r\n        ) {\r\n            emit ItemUnsold(auction_id);\r\n            emit AuctionEnded(auction_id, address(0), 0);\r\n            Auctions[auction_id].ended = true;\r\n            activeauctions -= 1;\r\n        } else if (\r\n\r\n            Auctions[auction_id].secondHighestBid == 0\r\n        ) {\r\n            emit AuctionEnded(\r\n                auction_id,\r\n                Auctions[auction_id].highestBidder,\r\n                Auctions[auction_id].highestBid\r\n            );\r\n            Auctions[auction_id].winner = Auctions[auction_id].highestBidder;\r\n            Auctions[auction_id].winningBid = Auctions[auction_id].highestBid;\r\n            Auctions[auction_id].ended = true;\r\n            activeauctions -= 1;\r\n\r\n            emit WinnerChosen(\r\n                auction_id,\r\n                Auctions[auction_id].highestBidder,\r\n                Auctions[auction_id].pubkey[Auctions[auction_id].winner],\r\n                Auctions[auction_id].winningBid\r\n            );\r\n        } else {\r\n            emit AuctionEnded(\r\n                auction_id,\r\n                Auctions[auction_id].highestBidder,\r\n                Auctions[auction_id].secondHighestBid\r\n            );\r\n            Auctions[auction_id].winner = Auctions[auction_id].highestBidder;\r\n            Auctions[auction_id].winningBid = Auctions[auction_id]\r\n                .secondHighestBid;\r\n            Auctions[auction_id].ended = true;\r\n            activeauctions -= 1;\r\n            uint256 difference = 2 *\r\n                (Auctions[auction_id].highestBid -\r\n                    Auctions[auction_id].secondHighestBid);\r\n            Auctions[auction_id].pendingReturns[\r\n                Auctions[auction_id].highestBidder\r\n            ] += difference;\r\n            //highest.transfer(Auctions[auction_id].highestBid);\r\n            for (\r\n                uint256 i = 0;\r\n                i < Auctions[auction_id].revealedBidders.length;\r\n                ++i\r\n            ) {\r\n                withdraw(auction_id, Auctions[auction_id].revealedBidders[i]);\r\n            }\r\n\r\n            emit WinnerChosen(\r\n                auction_id,\r\n                Auctions[auction_id].winner,\r\n                Auctions[auction_id].pubkey[Auctions[auction_id].winner],\r\n                Auctions[auction_id].winningBid\r\n            );\r\n        }\r\n    }\r\n\r\n    function sellItem(uint256 auction_id, string calldata encryptedKey)\r\n        external\r\n        payable\r\n        validAuctionId(auction_id)\r\n        auctionEnded(auction_id)\r\n        onlyBeneficiary(auction_id)\r\n    {\r\n        require(\r\n            msg.value == 2 * Auctions[auction_id].winningBid,\r\n            \"You have not paid right the security deposit\"\r\n        );\r\n        Auctions[auction_id].encryptedKey = encryptedKey;\r\n\r\n        emit EncryptedKey(auction_id, encryptedKey);\r\n        //  Auctions[auction_id].beneficiary.transfer(Auctions[auction_id].winningBid);\r\n    }\r\n\r\n    function confirmDelivery(uint256 auction_id)\r\n        external\r\n        payable\r\n        validAuctionId(auction_id)\r\n        onlyWinner(auction_id)\r\n        auctionEnded(auction_id)\r\n    {\r\n        /// Refund the seller\r\n        uint256 amt = Auctions[auction_id].winningBid;\r\n        uint256 prof = 3 * amt;\r\n        // emit deliveryComplete(auction_id);\r\n        Auctions[auction_id].pendingReturns[Auctions[auction_id].winner] = 0;\r\n        Auctions[auction_id].sold = true;\r\n\r\n        Auctions[auction_id].beneficiary.transfer(prof);\r\n        Auctions[auction_id].winner.transfer(amt);\r\n\r\n        emit deliveryComplete(auction_id);\r\n    }\r\n}\r\n",
  "sourcePath": "C:\\Users\\Santosh_Burada\\Desktop\\Spring\\Subjects\\Blockchain\\Testing\\contracts\\VikreyAuction.sol",
  "compiler": {
    "name": "solc",
    "version": "0.8.17+commit.8df45f5f.Emscripten.clang"
  },
  "schemaVersion": "3.4.11",
  "updatedAt": "2023-05-07T01:34:16.567Z",
  "devdoc": {
    "kind": "dev",
    "methods": {},
    "version": 1
  },
  "userdoc": {
    "kind": "user",
    "methods": {},
    "version": 1
  }
}