{
  "contractName": "AveragePriceAuction",
  "abi": [
    {
      "anonymous": false,
      "inputs": [
        {
          "indexed": false,
          "internalType": "uint256",
          "name": "Auction_id",
          "type": "uint256"
        },
        {
          "indexed": false,
          "internalType": "address",
          "name": "highestBidder",
          "type": "address"
        },
        {
          "indexed": false,
          "internalType": "uint256",
          "name": "highestBid",
          "type": "uint256"
        }
      ],
      "name": "AuctionEnded",
      "type": "event"
    },
    {
      "anonymous": false,
      "inputs": [
        {
          "indexed": false,
          "internalType": "uint256",
          "name": "Auction_id",
          "type": "uint256"
        },
        {
          "indexed": false,
          "internalType": "string",
          "name": "item_name",
          "type": "string"
        },
        {
          "indexed": false,
          "internalType": "string",
          "name": "item_description",
          "type": "string"
        }
      ],
      "name": "AuctionStarted",
      "type": "event"
    },
    {
      "anonymous": false,
      "inputs": [
        {
          "indexed": false,
          "internalType": "uint256",
          "name": "auction_id",
          "type": "uint256"
        },
        {
          "indexed": false,
          "internalType": "address",
          "name": "bidder",
          "type": "address"
        },
        {
          "indexed": false,
          "internalType": "uint256",
          "name": "balance",
          "type": "uint256"
        }
      ],
      "name": "BalanceRefunded",
      "type": "event"
    },
    {
      "anonymous": false,
      "inputs": [
        {
          "indexed": false,
          "internalType": "address",
          "name": "bidder",
          "type": "address"
        }
      ],
      "name": "BidMade",
      "type": "event"
    },
    {
      "anonymous": false,
      "inputs": [
        {
          "indexed": false,
          "internalType": "uint256",
          "name": "Auction_id",
          "type": "uint256"
        },
        {
          "indexed": false,
          "internalType": "address",
          "name": "bidder",
          "type": "address"
        }
      ],
      "name": "BidRevealFailed",
      "type": "event"
    },
    {
      "anonymous": false,
      "inputs": [
        {
          "indexed": false,
          "internalType": "uint256",
          "name": "Auction_id",
          "type": "uint256"
        },
        {
          "indexed": false,
          "internalType": "address",
          "name": "bidder",
          "type": "address"
        }
      ],
      "name": "BidRevealed",
      "type": "event"
    },
    {
      "anonymous": false,
      "inputs": [
        {
          "indexed": false,
          "internalType": "uint256",
          "name": "auction_id",
          "type": "uint256"
        },
        {
          "indexed": false,
          "internalType": "address",
          "name": "bidder",
          "type": "address"
        },
        {
          "indexed": false,
          "internalType": "uint256",
          "name": "bid_value",
          "type": "uint256"
        }
      ],
      "name": "BidderRefunded",
      "type": "event"
    },
    {
      "anonymous": false,
      "inputs": [
        {
          "indexed": false,
          "internalType": "uint256",
          "name": "Auction_id",
          "type": "uint256"
        }
      ],
      "name": "BiddingPeriodEnded",
      "type": "event"
    },
    {
      "anonymous": false,
      "inputs": [
        {
          "indexed": false,
          "internalType": "uint256",
          "name": "Auction_id",
          "type": "uint256"
        },
        {
          "indexed": false,
          "internalType": "uint256",
          "name": "bidding_end",
          "type": "uint256"
        }
      ],
      "name": "BiddingStarted",
      "type": "event"
    },
    {
      "anonymous": false,
      "inputs": [
        {
          "indexed": false,
          "internalType": "uint256",
          "name": "auction_id",
          "type": "uint256"
        },
        {
          "indexed": false,
          "internalType": "address",
          "name": "bidder",
          "type": "address"
        }
      ],
      "name": "DepositNotEnough",
      "type": "event"
    },
    {
      "anonymous": false,
      "inputs": [
        {
          "indexed": false,
          "internalType": "uint256",
          "name": "auction_id",
          "type": "uint256"
        },
        {
          "indexed": false,
          "internalType": "string",
          "name": "encryptedKey",
          "type": "string"
        }
      ],
      "name": "EncryptedKey",
      "type": "event"
    },
    {
      "anonymous": false,
      "inputs": [
        {
          "indexed": false,
          "internalType": "uint256",
          "name": "auction_id",
          "type": "uint256"
        }
      ],
      "name": "ItemUnsold",
      "type": "event"
    },
    {
      "anonymous": false,
      "inputs": [
        {
          "indexed": false,
          "internalType": "uint256",
          "name": "auction_id",
          "type": "uint256"
        },
        {
          "indexed": false,
          "internalType": "address",
          "name": "bidder",
          "type": "address"
        },
        {
          "indexed": false,
          "internalType": "uint256",
          "name": "bid_value",
          "type": "uint256"
        }
      ],
      "name": "NewHighestBid",
      "type": "event"
    },
    {
      "anonymous": false,
      "inputs": [
        {
          "indexed": false,
          "internalType": "uint256",
          "name": "Auction_id",
          "type": "uint256"
        }
      ],
      "name": "RevealPeriodEnded",
      "type": "event"
    },
    {
      "anonymous": false,
      "inputs": [
        {
          "indexed": false,
          "internalType": "uint256",
          "name": "Auction_id",
          "type": "uint256"
        },
        {
          "indexed": false,
          "internalType": "uint256",
          "name": "reveal_end",
          "type": "uint256"
        }
      ],
      "name": "RevealPeriodStarted",
      "type": "event"
    },
    {
      "anonymous": false,
      "inputs": [
        {
          "indexed": false,
          "internalType": "uint256",
          "name": "Auction_id",
          "type": "uint256"
        },
        {
          "indexed": false,
          "internalType": "address",
          "name": "winner",
          "type": "address"
        },
        {
          "indexed": false,
          "internalType": "string",
          "name": "pubkey",
          "type": "string"
        },
        {
          "indexed": false,
          "internalType": "uint256",
          "name": "winning_bid",
          "type": "uint256"
        }
      ],
      "name": "WinnerChosen",
      "type": "event"
    },
    {
      "anonymous": false,
      "inputs": [
        {
          "indexed": false,
          "internalType": "uint256",
          "name": "auction_id",
          "type": "uint256"
        }
      ],
      "name": "deliveryComplete",
      "type": "event"
    },
    {
      "inputs": [
        {
          "internalType": "address",
          "name": "account",
          "type": "address"
        }
      ],
      "name": "getAccountBalance",
      "outputs": [
        {
          "internalType": "uint256",
          "name": "accountBalance",
          "type": "uint256"
        }
      ],
      "stateMutability": "view",
      "type": "function"
    },
    {
      "inputs": [
        {
          "internalType": "string",
          "name": "item_name",
          "type": "string"
        },
        {
          "internalType": "string",
          "name": "item_description",
          "type": "string"
        },
        {
          "internalType": "uint256",
          "name": "bidding_time",
          "type": "uint256"
        },
        {
          "internalType": "uint256",
          "name": "reveal_time",
          "type": "uint256"
        }
      ],
      "name": "auctionItem",
      "outputs": [],
      "stateMutability": "payable",
      "type": "function"
    },
    {
      "inputs": [],
      "name": "getactiveauctions",
      "outputs": [
        {
          "components": [
            {
              "internalType": "uint256",
              "name": "auction_id",
              "type": "uint256"
            },
            {
              "internalType": "address payable",
              "name": "beneficiary",
              "type": "address"
            },
            {
              "internalType": "uint256",
              "name": "biddingEnd",
              "type": "uint256"
            },
            {
              "internalType": "uint256",
              "name": "revealEnd",
              "type": "uint256"
            },
            {
              "internalType": "bool",
              "name": "ended",
              "type": "bool"
            },
            {
              "internalType": "string",
              "name": "item_name",
              "type": "string"
            },
            {
              "internalType": "string",
              "name": "item_description",
              "type": "string"
            },
            {
              "internalType": "bool",
              "name": "bidplaced",
              "type": "bool"
            },
            {
              "internalType": "bool",
              "name": "revealed",
              "type": "bool"
            }
          ],
          "internalType": "struct AverageAuctionDefinitions.auction_active_listings[]",
          "name": "",
          "type": "tuple[]"
        }
      ],
      "stateMutability": "view",
      "type": "function"
    },
    {
      "inputs": [],
      "name": "getallauctions",
      "outputs": [
        {
          "components": [
            {
              "internalType": "uint256",
              "name": "auction_id",
              "type": "uint256"
            },
            {
              "internalType": "address payable",
              "name": "beneficiary",
              "type": "address"
            },
            {
              "internalType": "address payable",
              "name": "winner",
              "type": "address"
            },
            {
              "internalType": "uint256",
              "name": "biddingEnd",
              "type": "uint256"
            },
            {
              "internalType": "uint256",
              "name": "revealEnd",
              "type": "uint256"
            },
            {
              "internalType": "bool",
              "name": "ended",
              "type": "bool"
            },
            {
              "internalType": "bool",
              "name": "sold",
              "type": "bool"
            },
            {
              "internalType": "string",
              "name": "item_name",
              "type": "string"
            },
            {
              "internalType": "string",
              "name": "item_description",
              "type": "string"
            },
            {
              "internalType": "bool",
              "name": "bidplaced",
              "type": "bool"
            },
            {
              "internalType": "bool",
              "name": "revealed",
              "type": "bool"
            },
            {
              "internalType": "uint256",
              "name": "finalBid",
              "type": "uint256"
            },
            {
              "internalType": "string",
              "name": "pubkey",
              "type": "string"
            },
            {
              "internalType": "string",
              "name": "encryptedKey",
              "type": "string"
            }
          ],
          "internalType": "struct AverageAuctionDefinitions.auction_all_listings[]",
          "name": "",
          "type": "tuple[]"
        }
      ],
      "stateMutability": "view",
      "type": "function"
    },
    {
      "inputs": [
        {
          "internalType": "bytes32",
          "name": "blindedBid",
          "type": "bytes32"
        },
        {
          "internalType": "uint256",
          "name": "auction_id",
          "type": "uint256"
        },
        {
          "internalType": "string",
          "name": "pubkey",
          "type": "string"
        }
      ],
      "name": "bid",
      "outputs": [],
      "stateMutability": "payable",
      "type": "function"
    },
    {
      "inputs": [
        {
          "internalType": "uint256",
          "name": "value",
          "type": "uint256"
        },
        {
          "internalType": "string",
          "name": "secret",
          "type": "string"
        },
        {
          "internalType": "uint256",
          "name": "auction_id",
          "type": "uint256"
        }
      ],
      "name": "reveal",
      "outputs": [],
      "stateMutability": "payable",
      "type": "function"
    },
    {
      "inputs": [
        {
          "internalType": "uint256",
          "name": "auction_id",
          "type": "uint256"
        }
      ],
      "name": "auctionEnd",
      "outputs": [],
      "stateMutability": "nonpayable",
      "type": "function"
    },
    {
      "inputs": [
        {
          "internalType": "uint256",
          "name": "auction_id",
          "type": "uint256"
        },
        {
          "internalType": "string",
          "name": "encryptedKey",
          "type": "string"
        }
      ],
      "name": "sellItem",
      "outputs": [],
      "stateMutability": "payable",
      "type": "function"
    },
    {
      "inputs": [
        {
          "internalType": "uint256",
          "name": "auction_id",
          "type": "uint256"
        }
      ],
      "name": "confirmDelivery",
      "outputs": [],
      "stateMutability": "payable",
      "type": "function"
    }
  ],
  "bytecode": "0x60806040526000600155600060025534801561001a57600080fd5b50613f298061002a6000396000f3fe6080604052600436106100865760003560e01c806393423e9c1161005957806393423e9c1461011757806396a18f8014610154578063b5e360371461017f578063e701cfc21461019b578063fd84cb97146101b757610086565b80630754aebb1461008b57806332246e9f146100b65780634f3ae594146100df57806384febc4b146100fb575b600080fd5b34801561009757600080fd5b506100a06101d3565b6040516100ad9190612aac565b60405180910390f35b3480156100c257600080fd5b506100dd60048036038101906100d89190612b04565b610736565b005b6100f960048036038101906100f49190612b96565b610dfb565b005b61011560048036038101906101109190612c0a565b6112c1565b005b34801561012357600080fd5b5061013e60048036038101906101399190612ca8565b6114df565b60405161014b9190612ce4565b60405180910390f35b34801561016057600080fd5b50610169611500565b6040516101769190612e8d565b60405180910390f35b61019960048036038101906101949190612ee5565b61184a565b005b6101b560048036038101906101b09190612f59565b611bb8565b005b6101d160048036038101906101cc9190612b04565b611f28565b005b6060600060015467ffffffffffffffff8111156101f3576101f2613000565b5b60405190808252806020026020018201604052801561022c57816020015b6102196125f0565b8152602001906001900390816102115790505b50905060005b60015481101561072e57600080600083815260200190815260200160002090506000604051806020016040528060008152509050600073ffffffffffffffffffffffffffffffffffffffff1682600b0160009054906101000a900473ffffffffffffffffffffffffffffffffffffffff1673ffffffffffffffffffffffffffffffffffffffff16146103af5781601301600083600b0160009054906101000a900473ffffffffffffffffffffffffffffffffffffffff1673ffffffffffffffffffffffffffffffffffffffff1673ffffffffffffffffffffffffffffffffffffffff168152602001908152602001600020805461032e9061305e565b80601f016020809104026020016040519081016040528092919081815260200182805461035a9061305e565b80156103a75780601f1061037c576101008083540402835291602001916103a7565b820191906000526020600020905b81548152906001019060200180831161038a57829003601f168201915b505050505090505b604051806101c00160405280836000015481526020018360010160009054906101000a900473ffffffffffffffffffffffffffffffffffffffff1673ffffffffffffffffffffffffffffffffffffffff16815260200183600b0160009054906101000a900473ffffffffffffffffffffffffffffffffffffffff1673ffffffffffffffffffffffffffffffffffffffff16815260200183600201548152602001836003015481526020018360040160009054906101000a900460ff16151581526020018360070160009054906101000a900460ff161515815260200183600501805461049a9061305e565b80601f01602080910402602001604051908101604052809291908181526020018280546104c69061305e565b80156105135780601f106104e857610100808354040283529160200191610513565b820191906000526020600020905b8154815290600101906020018083116104f657829003601f168201915b5050505050815260200183600601805461052c9061305e565b80601f01602080910402602001604051908101604052809291908181526020018280546105589061305e565b80156105a55780601f1061057a576101008083540402835291602001916105a5565b820191906000526020600020905b81548152906001019060200180831161058857829003601f168201915b505050505081526020018360110160003373ffffffffffffffffffffffffffffffffffffffff1673ffffffffffffffffffffffffffffffffffffffff16815260200190815260200160002060009054906101000a900460ff16151581526020018360120160003373ffffffffffffffffffffffffffffffffffffffff1673ffffffffffffffffffffffffffffffffffffffff16815260200190815260200160002060009054906101000a900460ff161515815260200183600c0154815260200182815260200183600d01805461067a9061305e565b80601f01602080910402602001604051908101604052809291908181526020018280546106a69061305e565b80156106f35780601f106106c8576101008083540402835291602001916106f3565b820191906000526020600020905b8154815290600101906020018083116106d657829003601f168201915b505050505081525084848151811061070e5761070d61308f565b5b602002602001018190525050508080610726906130ed565b915050610232565b508091505090565b80600154811061077b576040517f08c379a0000000000000000000000000000000000000000000000000000000008152600401610772906131b8565b60405180910390fd5b600080838152602001908152602001600020600301548042116107d3576040517f08c379a00000000000000000000000000000000000000000000000000000000081526004016107ca90613224565b60405180910390fd5b823373ffffffffffffffffffffffffffffffffffffffff1660008083815260200190815260200160002060010160009054906101000a900473ffffffffffffffffffffffffffffffffffffffff1673ffffffffffffffffffffffffffffffffffffffff1614610877576040517f08c379a000000000000000000000000000000000000000000000000000000000815260040161086e906132b6565b60405180910390fd5b836000151560008083815260200190815260200160002060040160009054906101000a900460ff161515146108e1576040517f08c379a00000000000000000000000000000000000000000000000000000000081526004016108d890613322565b60405180910390fd5b60008060008781526020019081526020016000206009015403610982577ff656db5d7eec16959704ab1442c4686390e8bdca6e2fd99d193f6871512359ea8560405161092d9190612ce4565b60405180910390a1600160008087815260200190815260200160002060040160006101000a81548160ff0219169083151502179055506001600260008282546109769190613342565b92505081905550610df4565b600069152d02c7e14af6800000905060008060005b6000808a815260200190815260200160002060090154811015610aeb5760008060008b8152602001908152602001600020600e01600083815260200190815260200160002060009054906101000a900473ffffffffffffffffffffffffffffffffffffffff169050600060026000808d815260200190815260200160002060100160008473ffffffffffffffffffffffffffffffffffffffff1673ffffffffffffffffffffffffffffffffffffffff16815260200190815260200160002054610a6091906133a5565b905060008060008d81526020019081526020016000206009015482610a8591906133e0565b6000808e815260200190815260200160002060080154610aa59190613458565b90506000811215610abf5780610aba9061349b565b610ac1565b805b905086811215610ad5578096508295508194505b5050508080610ae3906130ed565b915050610997565b5060008060008a815260200190815260200160002060100160008473ffffffffffffffffffffffffffffffffffffffff1673ffffffffffffffffffffffffffffffffffffffff1681526020019081526020016000208190555060016000808a815260200190815260200160002060040160006101000a81548160ff021916908315150217905550816000808a8152602001908152602001600020600b0160006101000a81548173ffffffffffffffffffffffffffffffffffffffff021916908373ffffffffffffffffffffffffffffffffffffffff160217905550806000808a8152602001908152602001600020600c0181905550600160026000828254610bf39190613342565b9250508190555060005b6000808a8152602001908152602001600020600a0180549050811015610d43576000808a8152602001908152602001600020600b0160009054906101000a900473ffffffffffffffffffffffffffffffffffffffff1673ffffffffffffffffffffffffffffffffffffffff166000808b8152602001908152602001600020600a018281548110610c9057610c8f61308f565b5b9060005260206000200160009054906101000a900473ffffffffffffffffffffffffffffffffffffffff1673ffffffffffffffffffffffffffffffffffffffff1614610d3257610d31896000808c8152602001908152602001600020600a018381548110610d0157610d0061308f565b5b9060005260206000200160009054906101000a900473ffffffffffffffffffffffffffffffffffffffff16612298565b5b80610d3c906130ed565b9050610bfd565b5060008060008a815260200190815260200160002060130160008473ffffffffffffffffffffffffffffffffffffffff1673ffffffffffffffffffffffffffffffffffffffff16815260200190815260200160002090506000808a8152602001908152602001600020600c015491507f9fa608827c3c4a8327a334f831d3ac579446f5314638ac0108bbaa17441e16a489848385604051610de794939291906135db565b60405180910390a1505050505b5050505050565b60008082815260200190815260200160002060020154804211610e53576040517f08c379a0000000000000000000000000000000000000000000000000000000008152600401610e4a90613224565b60405180910390fd5b60008083815260200190815260200160002060030154804210610eab576040517f08c379a0000000000000000000000000000000000000000000000000000000008152600401610ea290613673565b60405180910390fd5b826001151560008083815260200190815260200160002060110160003373ffffffffffffffffffffffffffffffffffffffff1673ffffffffffffffffffffffffffffffffffffffff16815260200190815260200160002060009054906101000a900460ff16151514610f52576040517f08c379a0000000000000000000000000000000000000000000000000000000008152600401610f4990613705565b60405180910390fd5b836001548110610f97576040517f08c379a0000000000000000000000000000000000000000000000000000000008152600401610f8e906131b8565b60405180910390fd5b600080806000888152602001908152602001600020600f0160003373ffffffffffffffffffffffffffffffffffffffff1673ffffffffffffffffffffffffffffffffffffffff168152602001908152602001600020905089898960405160200161100393929190613761565b60405160208183030381529060405280519060200120816000015414611061577fad8c260aa7a48094cdeb8c07f33bcf4e3bb56893286c330706ca376c728e9f3e87336040516110549291906137a2565b60405180910390a16112b5565b6000801b81600001819055506000806000898152602001908152602001600020600a01805490509050336000808a8152602001908152602001600020600a0182815481106110b2576110b161308f565b5b9060005260206000200160006101000a81548173ffffffffffffffffffffffffffffffffffffffff021916908373ffffffffffffffffffffffffffffffffffffffff16021790555060016000808a815260200190815260200160002060120160003373ffffffffffffffffffffffffffffffffffffffff1673ffffffffffffffffffffffffffffffffffffffff16815260200190815260200160002060006101000a81548160ff02191690831515021790555081600101548361117591906137cb565b92508a600261118491906137ff565b8260010154106111f75761119988338d61249b565b156111b9578a60026111ab91906137ff565b836111b69190613342565b92505b7fcb1784faad642d48c787676118783766577faa10d9c69eb1fbb40c3baaac87d188336040516111ea9291906137a2565b60405180910390a1611231565b7f2aef0deb49f8c134c725c0d4075973ab3c581f0d16cce112ab4ed4b26b9ddaa388336040516112289291906137a2565b60405180910390a15b7f0ce627ddf6b4fdb8de00ae62e2f2b8dee6a4226b75fccd3d6692329c8e0d2c1c88338560405161126493929190613841565b60405180910390a13373ffffffffffffffffffffffffffffffffffffffff166108fc849081150290604051600060405180830381858888f193505050501580156112b2573d6000803e3d6000fd5b50505b50505050505050505050565b826001548110611306576040517f08c379a00000000000000000000000000000000000000000000000000000000081526004016112fd906131b8565b60405180910390fd5b836001151560008083815260200190815260200160002060040160009054906101000a900460ff16151514611370576040517f08c379a0000000000000000000000000000000000000000000000000000000008152600401611367906138ea565b60405180910390fd5b843373ffffffffffffffffffffffffffffffffffffffff1660008083815260200190815260200160002060010160009054906101000a900473ffffffffffffffffffffffffffffffffffffffff1673ffffffffffffffffffffffffffffffffffffffff1614611414576040517f08c379a000000000000000000000000000000000000000000000000000000000815260040161140b906132b6565b60405180910390fd5b600080878152602001908152602001600020600c0154600261143691906137ff565b3414611477576040517f08c379a000000000000000000000000000000000000000000000000000000000815260040161146e9061397c565b60405180910390fd5b8484600080898152602001908152602001600020600d01918261149b929190613b49565b507f491466b860bd766ceeb3f3a2a797dc9bec299c959d192453c4bf6daf2c6f420f8686866040516114cf93929190613761565b60405180910390a1505050505050565b60008173ffffffffffffffffffffffffffffffffffffffff16319050919050565b606060008060025467ffffffffffffffff81111561152157611520613000565b5b60405190808252806020026020018201604052801561155a57816020015b611547612693565b81526020019060019003908161153f5790505b50905060005b600154811015611841576000151560008083815260200190815260200160002060040160009054906101000a900460ff1615150361182e5760008060008381526020019081526020016000209050604051806101200160405280826000015481526020018260010160009054906101000a900473ffffffffffffffffffffffffffffffffffffffff1673ffffffffffffffffffffffffffffffffffffffff16815260200182600201548152602001826003015481526020018260040160009054906101000a900460ff16151581526020018260050180546116409061305e565b80601f016020809104026020016040519081016040528092919081815260200182805461166c9061305e565b80156116b95780601f1061168e576101008083540402835291602001916116b9565b820191906000526020600020905b81548152906001019060200180831161169c57829003601f168201915b505050505081526020018260060180546116d29061305e565b80601f01602080910402602001604051908101604052809291908181526020018280546116fe9061305e565b801561174b5780601f106117205761010080835404028352916020019161174b565b820191906000526020600020905b81548152906001019060200180831161172e57829003601f168201915b505050505081526020018260110160003373ffffffffffffffffffffffffffffffffffffffff1673ffffffffffffffffffffffffffffffffffffffff16815260200190815260200160002060009054906101000a900460ff16151581526020018260120160003373ffffffffffffffffffffffffffffffffffffffff1673ffffffffffffffffffffffffffffffffffffffff16815260200190815260200160002060009054906101000a900460ff1615158152508385815181106118125761181161308f565b5b602002602001018190525060018461182a91906137cb565b9350505b8080611839906130ed565b915050611560565b50809250505090565b82600154811061188f576040517f08c379a0000000000000000000000000000000000000000000000000000000008152600401611886906131b8565b60405180910390fd5b600080858152602001908152602001600020600201548042106118e7576040517f08c379a00000000000000000000000000000000000000000000000000000000081526004016118de90613673565b60405180910390fd5b8460008082815260200190815260200160002060010160009054906101000a900473ffffffffffffffffffffffffffffffffffffffff1673ffffffffffffffffffffffffffffffffffffffff163373ffffffffffffffffffffffffffffffffffffffff160361198b576040517f08c379a000000000000000000000000000000000000000000000000000000000815260040161198290613c65565b60405180910390fd5b8560008082815260200190815260200160002060110160003373ffffffffffffffffffffffffffffffffffffffff1673ffffffffffffffffffffffffffffffffffffffff16815260200190815260200160002060009054906101000a900460ff1615611a2c576040517f08c379a0000000000000000000000000000000000000000000000000000000008152600401611a2390613cd1565b60405180910390fd5b604051806040016040528089815260200134815250600080898152602001908152602001600020600f0160003373ffffffffffffffffffffffffffffffffffffffff1673ffffffffffffffffffffffffffffffffffffffff1681526020019081526020016000206000820151816000015560208201518160010155905050600160008089815260200190815260200160002060110160003373ffffffffffffffffffffffffffffffffffffffff1673ffffffffffffffffffffffffffffffffffffffff16815260200190815260200160002060006101000a81548160ff02191690831515021790555085856000808a815260200190815260200160002060130160003373ffffffffffffffffffffffffffffffffffffffff1673ffffffffffffffffffffffffffffffffffffffff1681526020019081526020016000209182611b76929190613b49565b507f4b6c7d33d8244d6b35f1a8d35f6d19860fea50d46740345c395123753dd782fa33604051611ba69190613cf1565b60405180910390a15050505050505050565b600060015490506001806000828254611bd191906137cb565b92505081905550600160026000828254611beb91906137cb565b9250508190555060008342611c0091906137cb565b905060008382611c1091906137cb565b905082600080858152602001908152602001600020600001819055503360008085815260200190815260200160002060010160006101000a81548173ffffffffffffffffffffffffffffffffffffffff021916908373ffffffffffffffffffffffffffffffffffffffff16021790555081600080858152602001908152602001600020600201819055508060008085815260200190815260200160002060030181905550600080600085815260200190815260200160002060040160006101000a81548160ff02191690831515021790555088886000808681526020019081526020016000206005019182611d06929190613b49565b5086866000808681526020019081526020016000206006019182611d2b929190613b49565b50600080600085815260200190815260200160002060070160006101000a81548160ff021916908315150217905550600080600085815260200190815260200160002060080181905550600080600085815260200190815260200160002060090181905550600067ffffffffffffffff811115611dab57611daa613000565b5b604051908082528060200260200182016040528015611dd95781602001602082028036833780820191505090505b50600080858152602001908152602001600020600a019080519060200190611e029291906126fb565b506000806000858152602001908152602001600020600b0160006101000a81548173ffffffffffffffffffffffffffffffffffffffff021916908373ffffffffffffffffffffffffffffffffffffffff1602179055506000806000858152602001908152602001600020600c018190555060405180602001604052806000815250600080858152602001908152602001600020600d019081611ea49190613d0c565b507f58c55e05f36335d586220e73c744c2bee55b978dc632f7bae51fd53b68b967de838a8a8a8a604051611edc959493929190613dde565b60405180910390a17f407f117d881ed92fbecf3649fb9568d7191c91329e6cef0cb5fc97916ef0cead8383604051611f15929190613e27565b60405180910390a1505050505050505050565b806001548110611f6d576040517f08c379a0000000000000000000000000000000000000000000000000000000008152600401611f64906131b8565b60405180910390fd5b81600080828152602001908152602001600020600b0160009054906101000a900473ffffffffffffffffffffffffffffffffffffffff1673ffffffffffffffffffffffffffffffffffffffff163373ffffffffffffffffffffffffffffffffffffffff1614612011576040517f08c379a000000000000000000000000000000000000000000000000000000000815260040161200890613e9c565b60405180910390fd5b826001151560008083815260200190815260200160002060040160009054906101000a900460ff1615151461207b576040517f08c379a0000000000000000000000000000000000000000000000000000000008152600401612072906138ea565b60405180910390fd5b6000806000868152602001908152602001600020600c0154905060008160036120a491906137ff565b9050600080600088815260200190815260200160002060100160008060008a8152602001908152602001600020600b0160009054906101000a900473ffffffffffffffffffffffffffffffffffffffff1673ffffffffffffffffffffffffffffffffffffffff1673ffffffffffffffffffffffffffffffffffffffff16815260200190815260200160002081905550600160008088815260200190815260200160002060070160006101000a81548160ff02191690831515021790555060008087815260200190815260200160002060010160009054906101000a900473ffffffffffffffffffffffffffffffffffffffff1673ffffffffffffffffffffffffffffffffffffffff166108fc829081150290604051600060405180830381858888f193505050501580156121dc573d6000803e3d6000fd5b50600080878152602001908152602001600020600b0160009054906101000a900473ffffffffffffffffffffffffffffffffffffffff1673ffffffffffffffffffffffffffffffffffffffff166108fc839081150290604051600060405180830381858888f19350505050158015612258573d6000803e3d6000fd5b507f6cbc019d5c94717baad0acdfa06c66c2a314a9f71c5486a1034adb0f07a57e65866040516122889190612ce4565b60405180910390a1505050505050565b816001151560008083815260200190815260200160002060040160009054906101000a900460ff16151514612302576040517f08c379a00000000000000000000000000000000000000000000000000000000081526004016122f9906138ea565b60405180910390fd5b600080600085815260200190815260200160002060100160008473ffffffffffffffffffffffffffffffffffffffff1673ffffffffffffffffffffffffffffffffffffffff16815260200190815260200160002054111561249657600080600085815260200190815260200160002060100160008473ffffffffffffffffffffffffffffffffffffffff1673ffffffffffffffffffffffffffffffffffffffff168152602001908152602001600020549050600080600086815260200190815260200160002060100160008573ffffffffffffffffffffffffffffffffffffffff1673ffffffffffffffffffffffffffffffffffffffff1681526020019081526020016000208190555060008390508073ffffffffffffffffffffffffffffffffffffffff166108fc839081150290604051600060405180830381858888f19350505050158015612457573d6000803e3d6000fd5b507fa01ed4ff1bfc084518bd795b4114da41c800c9ae1fc5e594cb505cb4c0c3fae185858460405161248b93929190613ebc565b60405180910390a150505b505050565b600082600080868152602001908152602001600020600e01600080600088815260200190815260200160002060090154815260200190815260200160002060006101000a81548173ffffffffffffffffffffffffffffffffffffffff021916908373ffffffffffffffffffffffffffffffffffffffff1602179055506001600080868152602001908152602001600020600901600082825461253d91906137cb565b9250508190555081600080868152602001908152602001600020600801600082825461256991906137cb565b9250508190555081600261257d91906137ff565b60008086815260200190815260200160002060100160008573ffffffffffffffffffffffffffffffffffffffff1673ffffffffffffffffffffffffffffffffffffffff16815260200190815260200160002060008282546125de91906137cb565b92505081905550600190509392505050565b604051806101c0016040528060008152602001600073ffffffffffffffffffffffffffffffffffffffff168152602001600073ffffffffffffffffffffffffffffffffffffffff168152602001600081526020016000815260200160001515815260200160001515815260200160608152602001606081526020016000151581526020016000151581526020016000815260200160608152602001606081525090565b60405180610120016040528060008152602001600073ffffffffffffffffffffffffffffffffffffffff168152602001600081526020016000815260200160001515815260200160608152602001606081526020016000151581526020016000151581525090565b828054828255906000526020600020908101928215612774579160200282015b828111156127735782518260006101000a81548173ffffffffffffffffffffffffffffffffffffffff021916908373ffffffffffffffffffffffffffffffffffffffff1602179055509160200191906001019061271b565b5b5090506127819190612785565b5090565b5b8082111561279e576000816000905550600101612786565b5090565b600081519050919050565b600082825260208201905092915050565b6000819050602082019050919050565b6000819050919050565b6127e1816127ce565b82525050565b600073ffffffffffffffffffffffffffffffffffffffff82169050919050565b6000612812826127e7565b9050919050565b61282281612807565b82525050565b60008115159050919050565b61283d81612828565b82525050565b600081519050919050565b600082825260208201905092915050565b60005b8381101561287d578082015181840152602081019050612862565b60008484015250505050565b6000601f19601f8301169050919050565b60006128a582612843565b6128af818561284e565b93506128bf81856020860161285f565b6128c881612889565b840191505092915050565b60006101c0830160008301516128ec60008601826127d8565b5060208301516128ff6020860182612819565b5060408301516129126040860182612819565b50606083015161292560608601826127d8565b50608083015161293860808601826127d8565b5060a083015161294b60a0860182612834565b5060c083015161295e60c0860182612834565b5060e083015184820360e0860152612976828261289a565b915050610100830151848203610100860152612992828261289a565b9150506101208301516129a9610120860182612834565b506101408301516129be610140860182612834565b506101608301516129d36101608601826127d8565b506101808301518482036101808601526129ed828261289a565b9150506101a08301518482036101a0860152612a09828261289a565b9150508091505092915050565b6000612a2283836128d3565b905092915050565b6000602082019050919050565b6000612a42826127a2565b612a4c81856127ad565b935083602082028501612a5e856127be565b8060005b85811015612a9a5784840389528151612a7b8582612a16565b9450612a8683612a2a565b925060208a01995050600181019050612a62565b50829750879550505050505092915050565b60006020820190508181036000830152612ac68184612a37565b905092915050565b600080fd5b600080fd5b612ae1816127ce565b8114612aec57600080fd5b50565b600081359050612afe81612ad8565b92915050565b600060208284031215612b1a57612b19612ace565b5b6000612b2884828501612aef565b91505092915050565b600080fd5b600080fd5b600080fd5b60008083601f840112612b5657612b55612b31565b5b8235905067ffffffffffffffff811115612b7357612b72612b36565b5b602083019150836001820283011115612b8f57612b8e612b3b565b5b9250929050565b60008060008060608587031215612bb057612baf612ace565b5b6000612bbe87828801612aef565b945050602085013567ffffffffffffffff811115612bdf57612bde612ad3565b5b612beb87828801612b40565b93509350506040612bfe87828801612aef565b91505092959194509250565b600080600060408486031215612c2357612c22612ace565b5b6000612c3186828701612aef565b935050602084013567ffffffffffffffff811115612c5257612c51612ad3565b5b612c5e86828701612b40565b92509250509250925092565b6000612c75826127e7565b9050919050565b612c8581612c6a565b8114612c9057600080fd5b50565b600081359050612ca281612c7c565b92915050565b600060208284031215612cbe57612cbd612ace565b5b6000612ccc84828501612c93565b91505092915050565b612cde816127ce565b82525050565b6000602082019050612cf96000830184612cd5565b92915050565b600081519050919050565b600082825260208201905092915050565b6000819050602082019050919050565b600061012083016000830151612d4460008601826127d8565b506020830151612d576020860182612819565b506040830151612d6a60408601826127d8565b506060830151612d7d60608601826127d8565b506080830151612d906080860182612834565b5060a083015184820360a0860152612da8828261289a565b91505060c083015184820360c0860152612dc2828261289a565b91505060e0830151612dd760e0860182612834565b50610100830151612dec610100860182612834565b508091505092915050565b6000612e038383612d2b565b905092915050565b6000602082019050919050565b6000612e2382612cff565b612e2d8185612d0a565b935083602082028501612e3f85612d1b565b8060005b85811015612e7b5784840389528151612e5c8582612df7565b9450612e6783612e0b565b925060208a01995050600181019050612e43565b50829750879550505050505092915050565b60006020820190508181036000830152612ea78184612e18565b905092915050565b6000819050919050565b612ec281612eaf565b8114612ecd57600080fd5b50565b600081359050612edf81612eb9565b92915050565b60008060008060608587031215612eff57612efe612ace565b5b6000612f0d87828801612ed0565b9450506020612f1e87828801612aef565b935050604085013567ffffffffffffffff811115612f3f57612f3e612ad3565b5b612f4b87828801612b40565b925092505092959194509250565b60008060008060008060808789031215612f7657612f75612ace565b5b600087013567ffffffffffffffff811115612f9457612f93612ad3565b5b612fa089828a01612b40565b9650965050602087013567ffffffffffffffff811115612fc357612fc2612ad3565b5b612fcf89828a01612b40565b94509450506040612fe289828a01612aef565b9250506060612ff389828a01612aef565b9150509295509295509295565b7f4e487b7100000000000000000000000000000000000000000000000000000000600052604160045260246000fd5b7f4e487b7100000000000000000000000000000000000000000000000000000000600052602260045260246000fd5b6000600282049050600182168061307657607f821691505b6020821081036130895761308861302f565b5b50919050565b7f4e487b7100000000000000000000000000000000000000000000000000000000600052603260045260246000fd5b7f4e487b7100000000000000000000000000000000000000000000000000000000600052601160045260246000fd5b60006130f8826127ce565b91507fffffffffffffffffffffffffffffffffffffffffffffffffffffffffffffffff820361312a576131296130be565b5b600182019050919050565b600082825260208201905092915050565b7f41756374696f6e2049642070726f766964656420646f65736e2774206578697360008201527f7400000000000000000000000000000000000000000000000000000000000000602082015250565b60006131a2602183613135565b91506131ad82613146565b604082019050919050565b600060208201905081810360008301526131d181613195565b9050919050565b7f6265666f72652074696d65000000000000000000000000000000000000000000600082015250565b600061320e600b83613135565b9150613219826131d8565b602082019050919050565b6000602082019050818103600083015261323d81613201565b9050919050565b7f4f6e6c792042656e65666963696172792063616e20656e64207468652061756360008201527f74696f6e00000000000000000000000000000000000000000000000000000000602082015250565b60006132a0602483613135565b91506132ab82613244565b604082019050919050565b600060208201905081810360008301526132cf81613293565b9050919050565b7f41756374696f6e20616c726561647920656e6465640000000000000000000000600082015250565b600061330c601583613135565b9150613317826132d6565b602082019050919050565b6000602082019050818103600083015261333b816132ff565b9050919050565b600061334d826127ce565b9150613358836127ce565b92508282039050818111156133705761336f6130be565b5b92915050565b7f4e487b7100000000000000000000000000000000000000000000000000000000600052601260045260246000fd5b60006133b0826127ce565b91506133bb836127ce565b9250826133cb576133ca613376565b5b828204905092915050565b6000819050919050565b60006133eb826133d6565b91506133f6836133d6565b9250828202613404816133d6565b91507f8000000000000000000000000000000000000000000000000000000000000000841460008412161561343c5761343b6130be565b5b8282058414831517613451576134506130be565b5b5092915050565b6000613463826133d6565b915061346e836133d6565b9250828203905081811260008412168282136000851215161715613495576134946130be565b5b92915050565b60006134a6826133d6565b91507f800000000000000000000000000000000000000000000000000000000000000082036134d8576134d76130be565b5b816000039050919050565b6000819050919050565b60006135086135036134fe846127e7565b6134e3565b6127e7565b9050919050565b600061351a826134ed565b9050919050565b600061352c8261350f565b9050919050565b61353c81613521565b82525050565b60008190508160005260206000209050919050565b600081546135648161305e565b61356e8186613135565b94506001821660008114613589576001811461359f576135d2565b60ff1983168652811515602002860193506135d2565b6135a885613542565b60005b838110156135ca578154818901526001820191506020810190506135ab565b808801955050505b50505092915050565b60006080820190506135f06000830187612cd5565b6135fd6020830186613533565b818103604083015261360f8185613557565b905061361e6060830184612cd5565b95945050505050565b7f41667465722074696d6500000000000000000000000000000000000000000000600082015250565b600061365d600a83613135565b915061366882613627565b602082019050919050565b6000602082019050818103600083015261368c81613650565b9050919050565b7f4469646e277420706c6163652061206265742c6e6f20706f696e7420696e207260008201527f657665616c696e67207468652062696400000000000000000000000000000000602082015250565b60006136ef603083613135565b91506136fa82613693565b604082019050919050565b6000602082019050818103600083015261371e816136e2565b9050919050565b82818337600083830152505050565b60006137408385613135565b935061374d838584613725565b61375683612889565b840190509392505050565b60006040820190506137766000830186612cd5565b8181036020830152613789818486613734565b9050949350505050565b61379c81612c6a565b82525050565b60006040820190506137b76000830185612cd5565b6137c46020830184613793565b9392505050565b60006137d6826127ce565b91506137e1836127ce565b92508282019050808211156137f9576137f86130be565b5b92915050565b600061380a826127ce565b9150613815836127ce565b9250828202613823816127ce565b9150828204841483151761383a576138396130be565b5b5092915050565b60006060820190506138566000830186612cd5565b6138636020830185613793565b6138706040830184612cd5565b949350505050565b7f43616e742041736b20726566756e642c61756374696f6e206e6f7420656e646560008201527f6400000000000000000000000000000000000000000000000000000000000000602082015250565b60006138d4602183613135565b91506138df82613878565b604082019050919050565b60006020820190508181036000830152613903816138c7565b9050919050565b7f596f752068617665206e6f74207061696420726967687420746865207365637560008201527f72697479206465706f7369740000000000000000000000000000000000000000602082015250565b6000613966602c83613135565b91506139718261390a565b604082019050919050565b6000602082019050818103600083015261399581613959565b9050919050565b600082905092915050565b60008190508160005260206000209050919050565b60006020601f8301049050919050565b600082821b905092915050565b600060088302613a097fffffffffffffffffffffffffffffffffffffffffffffffffffffffffffffffff826139cc565b613a1386836139cc565b95508019841693508086168417925050509392505050565b6000613a46613a41613a3c846127ce565b6134e3565b6127ce565b9050919050565b6000819050919050565b613a6083613a2b565b613a74613a6c82613a4d565b8484546139d9565b825550505050565b600090565b613a89613a7c565b613a94818484613a57565b505050565b5b81811015613ab857613aad600082613a81565b600181019050613a9a565b5050565b601f821115613afd57613ace816139a7565b613ad7846139bc565b81016020851015613ae6578190505b613afa613af2856139bc565b830182613a99565b50505b505050565b600082821c905092915050565b6000613b2060001984600802613b02565b1980831691505092915050565b6000613b398383613b0f565b9150826002028217905092915050565b613b53838361399c565b67ffffffffffffffff811115613b6c57613b6b613000565b5b613b76825461305e565b613b81828285613abc565b6000601f831160018114613bb05760008415613b9e578287013590505b613ba88582613b2d565b865550613c10565b601f198416613bbe866139a7565b60005b82811015613be657848901358255600182019150602085019450602081019050613bc1565b86831015613c035784890135613bff601f891682613b0f565b8355505b6001600288020188555050505b50505050505050565b7f42656e65666963696172792063616e6e6f742062696400000000000000000000600082015250565b6000613c4f601683613135565b9150613c5a82613c19565b602082019050919050565b60006020820190508181036000830152613c7e81613c42565b9050919050565b7f42696464657220416c726561647920706c616365642074686569722062696400600082015250565b6000613cbb601f83613135565b9150613cc682613c85565b602082019050919050565b60006020820190508181036000830152613cea81613cae565b9050919050565b6000602082019050613d066000830184613793565b92915050565b613d1582612843565b67ffffffffffffffff811115613d2e57613d2d613000565b5b613d38825461305e565b613d43828285613abc565b600060209050601f831160018114613d765760008415613d64578287015190505b613d6e8582613b2d565b865550613dd6565b601f198416613d84866139a7565b60005b82811015613dac57848901518255600182019150602085019450602081019050613d87565b86831015613dc95784890151613dc5601f891682613b0f565b8355505b6001600288020188555050505b505050505050565b6000606082019050613df36000830188612cd5565b8181036020830152613e06818688613734565b90508181036040830152613e1b818486613734565b90509695505050505050565b6000604082019050613e3c6000830185612cd5565b613e496020830184612cd5565b9392505050565b7f4f6e6c792057696e6e65722063616e20636f6e6669726d207075726368617365600082015250565b6000613e86602083613135565b9150613e9182613e50565b602082019050919050565b60006020820190508181036000830152613eb581613e79565b9050919050565b6000606082019050613ed16000830186612cd5565b613ede6020830185613533565b613eeb6040830184612cd5565b94935050505056fea26469706673582212209a85d90508517a17be0064b5dda6c99806866b92786f38c0d64ff2773c0447bb64736f6c63430008110033",
  "immutableReferences": {},
  "source": "/// SPDX-License-Identifier: MIT\r\npragma solidity >=0.4.22 <0.9.0;\r\npragma experimental ABIEncoderV2;\r\n\r\nimport './AverageAuctionDefinitions.sol';\r\n\r\ncontract AveragePriceAuction is AverageAuctionDefinitions {\r\n\r\n    \r\n\r\n    mapping(uint256 => auctions) private Auctions;\r\n\r\n    // variables for managing auctions\r\n    uint256 current_auction_id = 0;\r\n    uint256 activeauctions = 0;\r\n\r\n\r\n    modifier condition(bool _condition) {\r\n        require(_condition);\r\n        _;\r\n    }\r\n\r\n    modifier onlyBefore(uint256 _time) {\r\n        require(block.timestamp < _time, \"After time\");\r\n        _;\r\n    }\r\n    modifier onlyAfter(uint256 _time) {\r\n        require(block.timestamp > _time, \"before time\");\r\n        _;\r\n    }\r\n\r\n    modifier validBidder(uint256 auction_id) {\r\n        require(\r\n            msg.sender != Auctions[auction_id].beneficiary,\r\n            \"Beneficiary cannot bid\"\r\n        );\r\n        _;\r\n    }\r\n    modifier newBidder(uint256 auction_id) {\r\n        require(\r\n            !Auctions[auction_id].bidded[msg.sender],\r\n            \"Bidder Already placed their bid\"\r\n        );\r\n        _;\r\n    }\r\n\r\n    modifier alreadyBidder(uint256 auction_id) {\r\n        require(\r\n            Auctions[auction_id].bidded[msg.sender] == true,\r\n            \"Didn't place a bet,no point in revealing the bid\"\r\n        );\r\n        _;\r\n    }\r\n\r\n    modifier onlyBeneficiary(uint256 auction_id) {\r\n        require(\r\n            Auctions[auction_id].beneficiary == msg.sender,\r\n            \"Only Beneficiary can end the auction\"\r\n        );\r\n        _;\r\n    }\r\n    modifier auctionActive(uint256 auction_id) {\r\n        require(Auctions[auction_id].ended == false, \"Auction already ended\");\r\n        _;\r\n    }\r\n    modifier auctionEnded(uint256 auction_id) {\r\n        require(\r\n            Auctions[auction_id].ended == true,\r\n            \"Cant Ask refund,auction not ended\"\r\n        );\r\n        _;\r\n    }\r\n    modifier validAuctionId(uint256 auction_id) {\r\n        require(\r\n            auction_id < current_auction_id,\r\n            \"Auction Id provided doesn't exist\"\r\n        );\r\n        _;\r\n    }\r\n    modifier onlyWinner(uint256 auction_id) {\r\n        require(\r\n            msg.sender == Auctions[auction_id].winner,\r\n            \"Only Winner can confirm purchase\"\r\n        );\r\n        _;\r\n    }\r\n\r\n    function getAccountBalance(address account)\r\n        public\r\n        view\r\n        returns (uint256 accountBalance)\r\n    {\r\n        accountBalance = account.balance;\r\n    }\r\n\r\n    function auctionItem(\r\n        string calldata item_name,\r\n        string calldata item_description,\r\n        uint256 bidding_time,\r\n        uint256 reveal_time\r\n    ) external payable {\r\n        uint256 auction_id = current_auction_id;\r\n        current_auction_id += 1;\r\n        activeauctions += 1;\r\n        uint256 bidding_end = block.timestamp + bidding_time;\r\n        uint256 reveal_end = bidding_end + reveal_time;\r\n\r\n        Auctions[auction_id].auction_id = auction_id;\r\n        Auctions[auction_id].beneficiary = payable(msg.sender);\r\n        Auctions[auction_id].biddingEnd = bidding_end;\r\n        Auctions[auction_id].revealEnd = reveal_end;\r\n        Auctions[auction_id].ended = false;\r\n        Auctions[auction_id].item_name = item_name;\r\n        Auctions[auction_id].item_description = item_description;\r\n        Auctions[auction_id].sold = false;\r\n        Auctions[auction_id].sum = 0;\r\n        Auctions[auction_id].no_of_bids = 0;\r\n        Auctions[auction_id].revealedBidders = new address payable[](0);\r\n        Auctions[auction_id].winner = payable(address(0));\r\n        Auctions[auction_id].winningBid = 0;\r\n        Auctions[auction_id].encryptedKey = \"\";\r\n        emit AuctionStarted(auction_id, item_name, item_description);\r\n        emit BiddingStarted(auction_id, bidding_end);\r\n    }\r\n\r\n    function getactiveauctions()\r\n        external\r\n        view\r\n        returns (auction_active_listings[] memory)\r\n    {\r\n        uint256 currentIndex = 0;\r\n        auction_active_listings[]\r\n            memory active_auctions = new auction_active_listings[](\r\n                activeauctions\r\n            );\r\n        for (uint256 i = 0; i < current_auction_id; i++) {\r\n            if (Auctions[i].ended == false) {\r\n                auctions storage currentauction = Auctions[i];\r\n                active_auctions[currentIndex] = auction_active_listings(\r\n                    currentauction.auction_id,\r\n                    currentauction.beneficiary,\r\n                    currentauction.biddingEnd,\r\n                    currentauction.revealEnd,\r\n                    currentauction.ended,\r\n                    currentauction.item_name,\r\n                    currentauction.item_description,\r\n                    currentauction.bidded[msg.sender],\r\n                    currentauction.revealed[msg.sender]\r\n                );\r\n                currentIndex += 1;\r\n            }\r\n        }\r\n        return active_auctions;\r\n    }\r\n\r\n    function getallauctions()\r\n        external\r\n        view\r\n        returns (auction_all_listings[] memory)\r\n    {\r\n        auction_all_listings[] memory all_auctions = new auction_all_listings[](\r\n            current_auction_id\r\n        );\r\n        for (uint256 i = 0; i < current_auction_id; i++) {\r\n            auctions storage currentauction = Auctions[i];\r\n            string memory pubkey = \"\";\r\n            if (currentauction.winner != address(0))\r\n                pubkey = currentauction.pubkey[currentauction.winner];\r\n            all_auctions[i] = auction_all_listings(\r\n                currentauction.auction_id,\r\n                currentauction.beneficiary,\r\n                currentauction.winner,\r\n                currentauction.biddingEnd,\r\n                currentauction.revealEnd,\r\n                currentauction.ended,\r\n                currentauction.sold,\r\n                currentauction.item_name,\r\n                currentauction.item_description,\r\n                currentauction.bidded[msg.sender],\r\n                currentauction.revealed[msg.sender],\r\n                currentauction.winningBid,\r\n                pubkey,\r\n                currentauction.encryptedKey\r\n            );\r\n        }\r\n        return all_auctions;\r\n    }\r\n\r\n    function bid(\r\n        bytes32 blindedBid,\r\n        uint256 auction_id,\r\n        string calldata pubkey\r\n    )\r\n        external\r\n        payable\r\n        validAuctionId(auction_id)\r\n        onlyBefore(Auctions[auction_id].biddingEnd)\r\n        validBidder(auction_id)\r\n        newBidder(auction_id)\r\n    {\r\n        Auctions[auction_id].bids[msg.sender] = Bid(blindedBid, msg.value);\r\n        Auctions[auction_id].bidded[msg.sender] = true;\r\n        Auctions[auction_id].pubkey[msg.sender] = pubkey;\r\n        emit BidMade(msg.sender);\r\n    }\r\n\r\n    function reveal(\r\n        uint256 value,\r\n        //bool fake,\r\n        string calldata secret,\r\n        uint256 auction_id\r\n    )\r\n        external\r\n        payable\r\n        onlyAfter(Auctions[auction_id].biddingEnd)\r\n        onlyBefore(Auctions[auction_id].revealEnd)\r\n        alreadyBidder(auction_id)\r\n        validAuctionId(auction_id)\r\n    {\r\n        uint256 refund = 0;\r\n        //get the bid placed by the user\r\n        Bid storage bidToCheck = Auctions[auction_id].bids[msg.sender];\r\n\r\n        // improper revealing\r\n        if (bidToCheck.bidHash != keccak256(abi.encode(value, secret))) {\r\n            // Bid was not actually revealed.\r\n            // Do not refund deposit.\r\n            emit BidRevealFailed(auction_id, msg.sender);\r\n        } else {\r\n            // Make it impossible for the sender to re-claim\r\n            bidToCheck.bidHash = bytes32(0);\r\n\r\n            uint revealedBiddersLength = Auctions[auction_id].revealedBidders.length;\r\n            Auctions[auction_id].revealedBidders[revealedBiddersLength] = payable(msg.sender);\r\n            Auctions[auction_id].revealed[msg.sender] = true;\r\n            refund += bidToCheck.deposit;\r\n            if (bidToCheck.deposit >= 2 * value) {\r\n                if (placeBid(auction_id, payable(msg.sender), value))\r\n                    refund -= 2 * value;\r\n                emit BidRevealed(auction_id, msg.sender);\r\n            } else emit DepositNotEnough(auction_id, msg.sender);\r\n            // the same deposit.\r\n            emit BalanceRefunded(auction_id, msg.sender, refund);\r\n            payable(msg.sender).transfer(refund);\r\n        }\r\n    }\r\n\r\n    function placeBid(\r\n        uint256 auction_id,\r\n        address payable bidder,\r\n        uint256 value\r\n    ) internal returns (bool success) {\r\n        Auctions[auction_id].bidders[Auctions[auction_id].no_of_bids] = bidder;\r\n        Auctions[auction_id].no_of_bids += 1;\r\n        Auctions[auction_id].sum += value;\r\n        Auctions[auction_id].pendingReturns[bidder] += 2 * value;\r\n        return true;\r\n    }\r\n\r\n    function withdraw(uint256 auction_id, address payable bidder)\r\n        internal\r\n        auctionEnded(auction_id)\r\n    {\r\n        //emit BidderRefunded(auction_id,msg.sender, Auctions[auction_id].pendingReturns[msg.sender]);\r\n        if (Auctions[auction_id].pendingReturns[bidder] > 0) {\r\n            uint256 value = Auctions[auction_id].pendingReturns[bidder];\r\n            Auctions[auction_id].pendingReturns[bidder] = 0;\r\n            address payable payable_sender = bidder;\r\n            payable_sender.transfer(value);\r\n            emit BidderRefunded(auction_id, bidder, value);\r\n        }\r\n    }\r\n\r\n\r\n    function auctionEnd(uint256 auction_id)\r\n        external\r\n        validAuctionId(auction_id)\r\n        onlyAfter(Auctions[auction_id].revealEnd)\r\n        onlyBeneficiary(auction_id)\r\n        auctionActive(auction_id)\r\n    {\r\n        if (Auctions[auction_id].no_of_bids == 0) {\r\n            emit ItemUnsold(auction_id);\r\n            Auctions[auction_id].ended = true;\r\n            activeauctions -= 1;\r\n        } else {\r\n            int256 closest_difference = 100000000000000000000000;\r\n            address payable winner = payable(address(0));\r\n            uint256 winning_bid = 0;\r\n            for (uint256 i = 0; i < Auctions[auction_id].no_of_bids; i++) {\r\n                address payable bidder_address = Auctions[auction_id].bidders[\r\n                    i\r\n                ];\r\n                uint256 bid_value = Auctions[auction_id].pendingReturns[\r\n                    bidder_address\r\n                ] / 2;\r\n                int256 difference = int256(Auctions[auction_id].sum) -\r\n                    (int256(bid_value) *\r\n                        int256(Auctions[auction_id].no_of_bids));\r\n                // if (difference < 0) {\r\n                //     difference = -difference;\r\n                // }\r\n                difference = difference >= 0 ? difference : -difference;\r\n                if (difference < closest_difference) {\r\n                    closest_difference = difference;\r\n                    winner = bidder_address;\r\n                    winning_bid = bid_value;\r\n                }\r\n            }\r\n            Auctions[auction_id].pendingReturns[winner] = 0;\r\n            Auctions[auction_id].ended = true;\r\n            Auctions[auction_id].winner = winner;\r\n            Auctions[auction_id].winningBid = winning_bid;\r\n            activeauctions -= 1;\r\n            for (\r\n                uint256 i = 0;\r\n                i < Auctions[auction_id].revealedBidders.length;\r\n                ++i\r\n            ) {\r\n                if (\r\n                    Auctions[auction_id].revealedBidders[i] !=\r\n                    Auctions[auction_id].winner\r\n                ) withdraw(auction_id, Auctions[auction_id].revealedBidders[i]);\r\n            }\r\n            //Auctions[auction_id].beneficiary.transfer(winning_bid);\r\n            string storage winner_pubkey = Auctions[auction_id].pubkey[winner];\r\n            winning_bid = Auctions[auction_id].winningBid;\r\n            emit WinnerChosen(auction_id, winner, winner_pubkey, winning_bid);\r\n        }\r\n    }\r\n\r\n    /// @dev Sale of item from seller's side\r\n    /// @dev Transaction from the seller\r\n    /// @param auction_id is the id of the item being sold_\r\n    /// @param encryptedKey is the unique string for the item\r\n    /// @dev assume the seller is fair,will provide the right item\r\n    function sellItem(uint256 auction_id, string calldata encryptedKey)\r\n        external\r\n        payable\r\n        validAuctionId(auction_id)\r\n        auctionEnded(auction_id)\r\n        onlyBeneficiary(auction_id)\r\n    {\r\n        require(\r\n            msg.value == 2 * Auctions[auction_id].winningBid,\r\n            \"You have not paid right the security deposit\"\r\n        );\r\n        Auctions[auction_id].encryptedKey = encryptedKey;\r\n\r\n        emit EncryptedKey(auction_id, encryptedKey);\r\n        //  Auctions[auction_id].beneficiary.transfer(Auctions[auction_id].winningBid);\r\n    }\r\n\r\n    /// @dev Confirmation of delivery\r\n    /// @dev Transaction from the winner\r\n    /// @param auction_id is the id of the item being sold_\r\n    function confirmDelivery(uint256 auction_id)\r\n        external\r\n        payable\r\n        validAuctionId(auction_id)\r\n        onlyWinner(auction_id)\r\n        auctionEnded(auction_id)\r\n    {\r\n        /// Refund the seller\r\n        uint256 amt = Auctions[auction_id].winningBid;\r\n        uint256 prof = 3 * amt;\r\n        // emit deliveryComplete(auction_id);\r\n        Auctions[auction_id].pendingReturns[Auctions[auction_id].winner] = 0;\r\n        Auctions[auction_id].sold = true;\r\n\r\n        Auctions[auction_id].beneficiary.transfer(prof);\r\n        Auctions[auction_id].winner.transfer(amt);\r\n\r\n        emit deliveryComplete(auction_id);\r\n    }\r\n}\r\n",
  "sourcePath": "C:\\Users\\Santosh_Burada\\Desktop\\Spring\\Subjects\\Blockchain\\Testing\\contracts\\AveragePriceAuction.sol",
  "compiler": {
    "name": "solc",
    "version": "0.8.17+commit.8df45f5f.Emscripten.clang"
  },
  "schemaVersion": "3.4.11",
  "updatedAt": "2023-05-07T03:17:01.348Z",
  "devdoc": {
    "kind": "dev",
    "methods": {
      "confirmDelivery(uint256)": {
        "details": "Confirmation of deliveryTransaction from the winner",
        "params": {
          "auction_id": "is the id of the item being sold_"
        }
      },
      "sellItem(uint256,string)": {
        "details": "Sale of item from seller's sideTransaction from the sellerassume the seller is fair,will provide the right item",
        "params": {
          "auction_id": "is the id of the item being sold_",
          "encryptedKey": "is the unique string for the item"
        }
      }
    },
    "version": 1
  },
  "userdoc": {
    "kind": "user",
    "methods": {},
    "version": 1
  }
}