{
  "contractName": "ListingBase",
  "abi": [
    {
      "anonymous": false,
      "inputs": [],
      "name": "Aborted",
      "type": "event"
    },
    {
      "anonymous": false,
      "inputs": [
        {
          "indexed": false,
          "internalType": "address",
          "name": "winner",
          "type": "address"
        },
        {
          "indexed": false,
          "internalType": "uint256",
          "name": "highestBid",
          "type": "uint256"
        }
      ],
      "name": "AuctionEnded",
      "type": "event"
    },
    {
      "anonymous": false,
      "inputs": [
        {
          "indexed": false,
          "internalType": "address",
          "name": "winner",
          "type": "address"
        },
        {
          "indexed": false,
          "internalType": "uint256",
          "name": "highestBid",
          "type": "uint256"
        }
      ],
      "name": "AuctionStarted",
      "type": "event"
    },
    {
      "anonymous": false,
      "inputs": [
        {
          "indexed": true,
          "internalType": "uint256",
          "name": "id",
          "type": "uint256"
        },
        {
          "indexed": false,
          "internalType": "string",
          "name": "encryptedKey",
          "type": "string"
        }
      ],
      "name": "EncryptedKey",
      "type": "event"
    },
    {
      "anonymous": false,
      "inputs": [
        {
          "indexed": true,
          "internalType": "address",
          "name": "beneficiary",
          "type": "address"
        },
        {
          "indexed": true,
          "internalType": "uint256",
          "name": "index",
          "type": "uint256"
        }
      ],
      "name": "ListingChanged",
      "type": "event"
    },
    {
      "anonymous": false,
      "inputs": [
        {
          "indexed": true,
          "internalType": "uint256",
          "name": "id",
          "type": "uint256"
        },
        {
          "indexed": false,
          "internalType": "address",
          "name": "beneficiary",
          "type": "address"
        },
        {
          "indexed": false,
          "internalType": "uint256",
          "name": "price",
          "type": "uint256"
        },
        {
          "indexed": false,
          "internalType": "string",
          "name": "item_name",
          "type": "string"
        },
        {
          "indexed": false,
          "internalType": "string",
          "name": "item_description",
          "type": "string"
        }
      ],
      "name": "ListingCreated",
      "type": "event"
    },
    {
      "anonymous": false,
      "inputs": [
        {
          "components": [
            {
              "internalType": "uint256",
              "name": "id",
              "type": "uint256"
            },
            {
              "internalType": "address payable",
              "name": "beneficiary",
              "type": "address"
            },
            {
              "internalType": "address payable",
              "name": "buyer",
              "type": "address"
            },
            {
              "internalType": "uint256",
              "name": "price",
              "type": "uint256"
            },
            {
              "internalType": "string",
              "name": "item_name",
              "type": "string"
            },
            {
              "internalType": "string",
              "name": "item_description",
              "type": "string"
            },
            {
              "internalType": "bool",
              "name": "sold_or_withdrawn",
              "type": "bool"
            },
            {
              "internalType": "bool",
              "name": "buyerAssigned",
              "type": "bool"
            },
            {
              "internalType": "string",
              "name": "publicKey",
              "type": "string"
            },
            {
              "internalType": "string",
              "name": "encryptedKey",
              "type": "string"
            },
            {
              "internalType": "enum ListingBase.State",
              "name": "state",
              "type": "uint8"
            }
          ],
          "indexed": false,
          "internalType": "struct ListingBase.Listing",
          "name": "list",
          "type": "tuple"
        }
      ],
      "name": "PurchaseComplete",
      "type": "event"
    },
    {
      "anonymous": false,
      "inputs": [
        {
          "components": [
            {
              "internalType": "uint256",
              "name": "id",
              "type": "uint256"
            },
            {
              "internalType": "address payable",
              "name": "beneficiary",
              "type": "address"
            },
            {
              "internalType": "address payable",
              "name": "buyer",
              "type": "address"
            },
            {
              "internalType": "uint256",
              "name": "price",
              "type": "uint256"
            },
            {
              "internalType": "string",
              "name": "item_name",
              "type": "string"
            },
            {
              "internalType": "string",
              "name": "item_description",
              "type": "string"
            },
            {
              "internalType": "bool",
              "name": "sold_or_withdrawn",
              "type": "bool"
            },
            {
              "internalType": "bool",
              "name": "buyerAssigned",
              "type": "bool"
            },
            {
              "internalType": "string",
              "name": "publicKey",
              "type": "string"
            },
            {
              "internalType": "string",
              "name": "encryptedKey",
              "type": "string"
            },
            {
              "internalType": "enum ListingBase.State",
              "name": "state",
              "type": "uint8"
            }
          ],
          "indexed": false,
          "internalType": "struct ListingBase.Listing",
          "name": "list",
          "type": "tuple"
        },
        {
          "indexed": true,
          "internalType": "address",
          "name": "buyer",
          "type": "address"
        },
        {
          "indexed": false,
          "internalType": "string",
          "name": "pubKey",
          "type": "string"
        }
      ],
      "name": "PurchaseRequested",
      "type": "event"
    },
    {
      "inputs": [],
      "name": "activeListings",
      "outputs": [
        {
          "internalType": "uint256",
          "name": "",
          "type": "uint256"
        }
      ],
      "stateMutability": "view",
      "type": "function"
    },
    {
      "inputs": [],
      "name": "state",
      "outputs": [
        {
          "internalType": "enum ListingBase.State",
          "name": "",
          "type": "uint8"
        }
      ],
      "stateMutability": "view",
      "type": "function"
    }
  ],
  "bytecode": "0x60806040526000805534801561001457600080fd5b5061018c806100246000396000f3fe608060405234801561001057600080fd5b50600436106100365760003560e01c8063c19d93fb1461003b578063d3a17f2914610059575b600080fd5b610043610077565b6040516100509190610107565b60405180910390f35b61006161008a565b60405161006e919061013b565b60405180910390f35b600160009054906101000a900460ff1681565b60005481565b7f4e487b7100000000000000000000000000000000000000000000000000000000600052602160045260246000fd5b600581106100d0576100cf610090565b5b50565b60008190506100e1826100bf565b919050565b60006100f1826100d3565b9050919050565b610101816100e6565b82525050565b600060208201905061011c60008301846100f8565b92915050565b6000819050919050565b61013581610122565b82525050565b6000602082019050610150600083018461012c565b9291505056fea2646970667358221220138a63d9ce91b733d3427d866829e19683dfa4dae54965388f2d562e3a4d338d64736f6c63430008110033",
  "immutableReferences": {},
  "source": "// SPDX-License-Identifier: MIT\r\npragma solidity >=0.4.22 <0.9.0;\r\npragma experimental ABIEncoderV2;\r\n\r\ncontract ListingBase {\r\n    \r\n    uint256 public activeListings = 0;\r\n\r\n    struct Bid {\r\n        bytes32 bidHash;\r\n        uint256 bidAmount;\r\n    }\r\n\r\n    struct Listing {\r\n        uint256 id;\r\n        address payable beneficiary;\r\n        address payable buyer;\r\n        uint256 price;\r\n        string item_name;\r\n        string item_description;\r\n        bool sold_or_withdrawn;\r\n        bool buyerAssigned;\r\n        string publicKey;\r\n        string encryptedKey;\r\n        State state;\r\n    }\r\n\r\n    enum State {\r\n        Created,\r\n        Active,\r\n        Sold,\r\n        Delivered,\r\n        Inactive\r\n    }\r\n    State public state;\r\n\r\n    event ListingCreated(\r\n        uint256 indexed id,\r\n        address beneficiary,\r\n        uint256 price,\r\n        string item_name,\r\n        string item_description\r\n    );\r\n    event ListingChanged(address indexed beneficiary, uint256 indexed index);\r\n    event PurchaseRequested(\r\n        Listing list,\r\n        address indexed buyer,\r\n        string pubKey\r\n    );\r\n    event EncryptedKey(uint256 indexed id, string encryptedKey);\r\n    event PurchaseComplete(Listing list);\r\n    event Aborted();\r\n    event AuctionStarted(address winner, uint256 highestBid);\r\n    event AuctionEnded(address winner, uint256 highestBid);\r\n    modifier condition(bool _condition) {\r\n        require(_condition);\r\n        _;\r\n    }\r\n\r\n    modifier onlyBefore(uint256 _time) {\r\n        require(block.timestamp < _time);\r\n        _;\r\n    }\r\n    modifier onlyAfter(uint256 _time) {\r\n        require(block.timestamp > _time);\r\n        _;\r\n    }\r\n\r\n    modifier validString(string memory str) {\r\n        require(\r\n            bytes(str).length <= 50,\r\n            \"String Length is 50 characters maximum\"\r\n        );\r\n        _;\r\n    }\r\n}\r\n",
  "sourcePath": "C:\\Users\\Santosh_Burada\\Desktop\\Spring\\Subjects\\Blockchain\\Testing\\contracts\\ListingBase.sol",
  "compiler": {
    "name": "solc",
    "version": "0.8.17+commit.8df45f5f.Emscripten.clang"
  },
  "schemaVersion": "3.4.11",
  "updatedAt": "2023-05-07T18:48:14.010Z",
  "devdoc": {
    "kind": "dev",
    "methods": {},
    "version": 1
  },
  "userdoc": {
    "kind": "user",
    "methods": {},
    "version": 1
  }
}